{
  "contractName": "Campaign",
  "abi": [
    {
      "inputs": [
        {
          "internalType": "uint256",
          "name": "_minimun",
          "type": "uint256"
        },
        {
          "internalType": "string",
          "name": "_ownerID",
          "type": "string"
        },
        {
          "internalType": "address",
          "name": "_creator",
          "type": "address"
        }
      ],
      "stateMutability": "nonpayable",
      "type": "constructor"
    },
    {
      "anonymous": false,
      "inputs": [
        {
          "indexed": false,
          "internalType": "uint256",
          "name": "balance",
          "type": "uint256"
        },
        {
          "indexed": false,
          "internalType": "uint256",
          "name": "approveCounts",
          "type": "uint256"
        },
        {
          "indexed": false,
          "internalType": "uint256",
          "name": "contributionAmount",
          "type": "uint256"
        },
        {
          "indexed": false,
          "internalType": "string",
          "name": "approverID",
          "type": "string"
        },
        {
          "indexed": true,
          "internalType": "address",
          "name": "approverAddress",
          "type": "address"
        }
      ],
      "name": "Contribute",
      "type": "event"
    },
    {
      "inputs": [],
      "name": "approveCounts",
      "outputs": [
        {
          "internalType": "uint256",
          "name": "",
          "type": "uint256"
        }
      ],
      "stateMutability": "view",
      "type": "function"
    },
    {
      "inputs": [],
      "name": "owner",
      "outputs": [
        {
          "internalType": "address",
          "name": "",
          "type": "address"
        }
      ],
      "stateMutability": "view",
      "type": "function"
    },
    {
      "inputs": [
        {
          "internalType": "uint256",
          "name": "",
          "type": "uint256"
        }
      ],
      "name": "requests",
      "outputs": [
        {
          "internalType": "string",
          "name": "description",
          "type": "string"
        },
        {
          "internalType": "uint256",
          "name": "value",
          "type": "uint256"
        },
        {
          "internalType": "uint256",
          "name": "approvalCounts",
          "type": "uint256"
        },
        {
          "internalType": "bool",
          "name": "complete",
          "type": "bool"
        },
        {
          "internalType": "address payable",
          "name": "recipient",
          "type": "address"
        }
      ],
      "stateMutability": "view",
      "type": "function"
    },
    {
      "inputs": [],
      "name": "getMinmum",
      "outputs": [
        {
          "internalType": "uint256",
          "name": "",
          "type": "uint256"
        }
      ],
      "stateMutability": "view",
      "type": "function"
    },
    {
      "inputs": [
        {
          "internalType": "string",
          "name": "_approverID",
          "type": "string"
        }
      ],
      "name": "contribute",
      "outputs": [],
      "stateMutability": "payable",
      "type": "function"
    },
    {
      "inputs": [
        {
          "internalType": "string",
          "name": "_description",
          "type": "string"
        },
        {
          "internalType": "uint256",
          "name": "_value",
          "type": "uint256"
        },
        {
          "internalType": "address payable",
          "name": "_recipient",
          "type": "address"
        },
        {
          "internalType": "string",
          "name": "_ownerID",
          "type": "string"
        }
      ],
      "name": "createRequest",
      "outputs": [],
      "stateMutability": "nonpayable",
      "type": "function"
    },
    {
      "inputs": [
        {
          "internalType": "uint256",
          "name": "_index",
          "type": "uint256"
        },
        {
          "internalType": "string",
          "name": "_approverID",
          "type": "string"
        }
      ],
      "name": "approveRequest",
      "outputs": [],
      "stateMutability": "nonpayable",
      "type": "function"
    },
    {
      "inputs": [
        {
          "internalType": "uint256",
          "name": "_index",
          "type": "uint256"
        },
        {
          "internalType": "string",
          "name": "_callerID",
          "type": "string"
        }
      ],
      "name": "finalizeRequest",
      "outputs": [],
      "stateMutability": "nonpayable",
      "type": "function"
    },
    {
      "inputs": [],
      "name": "getSummary",
      "outputs": [
        {
          "internalType": "uint256",
          "name": "",
          "type": "uint256"
        },
        {
          "internalType": "uint256",
          "name": "",
          "type": "uint256"
        },
        {
          "internalType": "uint256",
          "name": "",
          "type": "uint256"
        },
        {
          "internalType": "uint256",
          "name": "",
          "type": "uint256"
        },
        {
          "internalType": "address",
          "name": "",
          "type": "address"
        },
        {
          "internalType": "string",
          "name": "",
          "type": "string"
        },
        {
          "internalType": "address",
          "name": "",
          "type": "address"
        }
      ],
      "stateMutability": "view",
      "type": "function"
    },
    {
      "inputs": [],
      "name": "getRequestCounts",
      "outputs": [
        {
          "internalType": "uint256",
          "name": "",
          "type": "uint256"
        }
      ],
      "stateMutability": "view",
      "type": "function"
    },
    {
      "inputs": [],
      "name": "getTotalBalance",
      "outputs": [
        {
          "internalType": "uint256",
          "name": "",
          "type": "uint256"
        }
      ],
      "stateMutability": "view",
      "type": "function"
    }
  ],
  "bytecode": "0x60806040523480156200001157600080fd5b5060405162001c1038038062001c10833981810160405260608110156200003757600080fd5b8101908080519060200190929190805160405193929190846401000000008211156200006257600080fd5b838201915060208201858111156200007957600080fd5b82518660018202830111640100000000821117156200009757600080fd5b8083526020830192505050908051906020019080838360005b83811015620000cd578082015181840152602081019050620000b0565b50505050905090810190601f168015620000fb5780820380516001836020036101000a031916815260200191505b50604052602001805190602001909291905050508260018190555080600260006101000a81548173ffffffffffffffffffffffffffffffffffffffff021916908373ffffffffffffffffffffffffffffffffffffffff16021790555081600090805190602001906200016f92919062000179565b5050505062000228565b828054600181600116156101000203166002900490600052602060002090601f016020900481019282601f10620001bc57805160ff1916838001178555620001ed565b82800160010185558215620001ed579182015b82811115620001ec578251825591602001919060010190620001cf565b5b509050620001fc919062000200565b5090565b6200022591905b808211156200022157600081600090555060010162000207565b5090565b90565b6119d880620002386000396000f3fe60806040526004361061009c5760003560e01c806374d72d251161006457806374d72d251461044d5780637a6b3ed91461047857806381d12c581461054a5780638da5cb5b1461064a578063fe170593146106a1578063fe636f1a146107735761009c565b806312b58349146100a15780634051ddac146100cc5780634f3552d2146101de5780635c43217b14610209578063654f6509146102c4575b600080fd5b3480156100ad57600080fd5b506100b661079e565b6040518082815260200191505060405180910390f35b3480156100d857600080fd5b506100e16107a6565b604051808881526020018781526020018681526020018581526020018473ffffffffffffffffffffffffffffffffffffffff1673ffffffffffffffffffffffffffffffffffffffff168152602001806020018373ffffffffffffffffffffffffffffffffffffffff1673ffffffffffffffffffffffffffffffffffffffff168152602001828103825284818151815260200191508051906020019080838360005b8381101561019d578082015181840152602081019050610182565b50505050905090810190601f1680156101ca5780820380516001836020036101000a031916815260200191505b509850505050505050505060405180910390f35b3480156101ea57600080fd5b506101f3610898565b6040518082815260200191505060405180910390f35b6102c26004803603602081101561021f57600080fd5b810190808035906020019064010000000081111561023c57600080fd5b82018360208201111561024e57600080fd5b8035906020019184600183028401116401000000008311171561027057600080fd5b91908080601f016020809104026020016040519081016040528093929190818152602001838380828437600081840152601f19601f8201169050808301925050505050505091929192905050506108a2565b005b3480156102d057600080fd5b5061044b600480360360808110156102e757600080fd5b810190808035906020019064010000000081111561030457600080fd5b82018360208201111561031657600080fd5b8035906020019184600183028401116401000000008311171561033857600080fd5b91908080601f016020809104026020016040519081016040528093929190818152602001838380828437600081840152601f19601f82011690508083019250505050505050919291929080359060200190929190803573ffffffffffffffffffffffffffffffffffffffff169060200190929190803590602001906401000000008111156103c557600080fd5b8201836020820111156103d757600080fd5b803590602001918460018302840111640100000000831117156103f957600080fd5b91908080601f016020809104026020016040519081016040528093929190818152602001838380828437600081840152601f19601f820116905080830192505050505050509192919290505050610d3c565b005b34801561045957600080fd5b50610462611085565b6040518082815260200191505060405180910390f35b34801561048457600080fd5b506105486004803603604081101561049b57600080fd5b8101908080359060200190929190803590602001906401000000008111156104c257600080fd5b8201836020820111156104d457600080fd5b803590602001918460018302840111640100000000831117156104f657600080fd5b91908080601f016020809104026020016040519081016040528093929190818152602001838380828437600081840152601f19601f82011690508083019250505050505050919291929050505061108b565b005b34801561055657600080fd5b506105836004803603602081101561056d57600080fd5b8101908080359060200190929190505050611496565b6040518080602001868152602001858152602001841515151581526020018373ffffffffffffffffffffffffffffffffffffffff1673ffffffffffffffffffffffffffffffffffffffff168152602001828103825287818151815260200191508051906020019080838360005b8381101561060b5780820151818401526020810190506105f0565b50505050905090810190601f1680156106385780820380516001836020036101000a031916815260200191505b50965050505050505060405180910390f35b34801561065657600080fd5b5061065f61159e565b604051808273ffffffffffffffffffffffffffffffffffffffff1673ffffffffffffffffffffffffffffffffffffffff16815260200191505060405180910390f35b3480156106ad57600080fd5b50610771600480360360408110156106c457600080fd5b8101908080359060200190929190803590602001906401000000008111156106eb57600080fd5b8201836020820111156106fd57600080fd5b8035906020019184600183028401116401000000008311171561071f57600080fd5b91908080601f016020809104026020016040519081016040528093929190818152602001838380828437600081840152601f19601f8201169050808301925050505050505091929192905050506115c4565b005b34801561077f57600080fd5b5061078861184e565b6040518082815260200191505060405180910390f35b600047905090565b60008060008060006060600060015447600680549050600554600260009054906101000a900473ffffffffffffffffffffffffffffffffffffffff16600030818054600181600116156101000203166002900480601f01602080910402602001604051908101604052809291908181526020018280546001816001161561010002031660029004801561087a5780601f1061084f5761010080835404028352916020019161087a565b820191906000526020600020905b81548152906001019060200180831161085d57829003601f168201915b50505050509150965096509650965096509650965090919293949596565b6000600154905090565b6001543410156108fd576040517f08c379a00000000000000000000000000000000000000000000000000000000081526004018080602001828103825260328152602001806119486032913960400191505060405180910390fd5b60016003826040518082805190602001908083835b602083106109355780518252602082019150602081019050602083039250610912565b6001836020036101000a0380198251168184511680821785525050505050509050019150509081526020016040518091039020805490501015610a8f576005600081548092919060010191905055506003816040518082805190602001908083835b602083106109ba5780518252602082019150602081019050602083039250610997565b6001836020036101000a0380198251168184511680821785525050505050509050019150509081526020016040518091039020339080600181540180825580915050600190039060005260206000200160009091909190916101000a81548173ffffffffffffffffffffffffffffffffffffffff021916908373ffffffffffffffffffffffffffffffffffffffff160217905550600481908060018154018082558091505060019003906000526020600020016000909190919091509080519060200190610a8992919061185b565b50610c6c565b60006003826040518082805190602001908083835b60208310610ac75780518252602082019150602081019050602083039250610aa4565b6001836020036101000a0380198251168184511680821785525050505050509050019150509081526020016040518091039020905060006001905060008090505b8280549050811015610b90573373ffffffffffffffffffffffffffffffffffffffff16838281548110610b3757fe5b9060005260206000200160009054906101000a900473ffffffffffffffffffffffffffffffffffffffff1673ffffffffffffffffffffffffffffffffffffffff161415610b8357600091505b8080600101915050610b08565b50600115158115151415610c69576003836040518082805190602001908083835b60208310610bd45780518252602082019150602081019050602083039250610bb1565b6001836020036101000a0380198251168184511680821785525050505050509050019150509081526020016040518091039020339080600181540180825580915050600190039060005260206000200160009091909190916101000a81548173ffffffffffffffffffffffffffffffffffffffff021916908373ffffffffffffffffffffffffffffffffffffffff1602179055505b50505b3373ffffffffffffffffffffffffffffffffffffffff167f54f4f40bee8a9fab27595bbaa23453787ac66177f983b1cd06a240ba9c3e98704760055434856040518085815260200184815260200183815260200180602001828103825283818151815260200191508051906020019080838360005b83811015610cfc578082015181840152602081019050610ce1565b50505050905090810190601f168015610d295780820380516001836020036101000a031916815260200191505b509550505050505060405180910390a250565b80600260009054906101000a900473ffffffffffffffffffffffffffffffffffffffff1673ffffffffffffffffffffffffffffffffffffffff163373ffffffffffffffffffffffffffffffffffffffff16148015610e845750806040516020018082805190602001908083835b60208310610dcc5780518252602082019150602081019050602083039250610da9565b6001836020036101000a0380198251168184511680821785525050505050509050019150506040516020818303038152906040528051906020012060006040516020018082805460018160011615610100020316600290048015610e675780601f10610e45576101008083540402835291820191610e67565b820191906000526020600020905b815481529060010190602001808311610e53575b505091505060405160208183030381529060405280519060200120145b610ef6576040517f08c379a00000000000000000000000000000000000000000000000000000000081526004018080602001828103825260158152602001807f596f7520617265206e6f7420746865206f776e6572000000000000000000000081525060200191505060405180910390fd5b47841115610f6c576040517f08c379a000000000000000000000000000000000000000000000000000000000815260040180806020018281038252600e8152602001807f546f6f206d7563682076616c756500000000000000000000000000000000000081525060200191505060405180910390fd5b610f746118db565b6040518060a00160405280878152602001868152602001600081526020016000151581526020018573ffffffffffffffffffffffffffffffffffffffff16815250905060068190806001815401808255809150506001900390600052602060002090600502016000909190919091506000820151816000019080519060200190610fff92919061185b565b50602082015181600101556040820151816002015560608201518160030160006101000a81548160ff02191690831515021790555060808201518160030160016101000a81548173ffffffffffffffffffffffffffffffffffffffff021916908373ffffffffffffffffffffffffffffffffffffffff1602179055505050505050505050565b60055481565b606060008054600181600116156101000203166002900480601f0160208091040260200160405190810160405280929190818152602001828054600181600116156101000203166002900480156111235780601f106110f857610100808354040283529160200191611123565b820191906000526020600020905b81548152906001019060200180831161110657829003601f168201915b5050505050905060006003836040518082805190602001908083835b60208310611162578051825260208201915060208101905060208303925061113f565b6001836020036101000a03801982511681845116808217855250505050505090500191505090815260200160405180910390208054905011806112865750816040516020018082805190602001908083835b602083106111d757805182526020820191506020810190506020830392506111b4565b6001836020036101000a03801982511681845116808217855250505050505090500191505060405160208183030381529060405280519060200120816040516020018082805190602001908083835b602083106112495780518252602082019150602081019050602083039250611226565b6001836020036101000a03801982511681845116808217855250505050505090500191505060405160208183030381529060405280519060200120145b6112db576040517f08c379a000000000000000000000000000000000000000000000000000000000815260040180806020018281038252602981526020018061197a6029913960400191505060405180910390fd5b6000600684815481106112ea57fe5b9060005260206000209060050201905060026005548161130657fe5b0481600201541161137f576040517f08c379a00000000000000000000000000000000000000000000000000000000081526004018080602001828103825260148152602001807f4e6f7420656e6f75676820617070726f76616c7300000000000000000000000081525060200191505060405180910390fd5b8060030160009054906101000a900460ff1615611404576040517f08c379a000000000000000000000000000000000000000000000000000000000815260040180806020018281038252601a8152602001807f5468697320726571756573742077617320636f6d706c6574656400000000000081525060200191505060405180910390fd5b8060030160019054906101000a900473ffffffffffffffffffffffffffffffffffffffff1673ffffffffffffffffffffffffffffffffffffffff166108fc82600101549081150290604051600060405180830381858888f19350505050158015611472573d6000803e3d6000fd5b5060018160030160006101000a81548160ff02191690831515021790555050505050565b600681815481106114a357fe5b9060005260206000209060050201600091509050806000018054600181600116156101000203166002900480601f01602080910402602001604051908101604052809291908181526020018280546001816001161561010002031660029004801561154f5780601f106115245761010080835404028352916020019161154f565b820191906000526020600020905b81548152906001019060200180831161153257829003601f168201915b5050505050908060010154908060020154908060030160009054906101000a900460ff16908060030160019054906101000a900473ffffffffffffffffffffffffffffffffffffffff16905085565b600260009054906101000a900473ffffffffffffffffffffffffffffffffffffffff1681565b60006003826040518082805190602001908083835b602083106115fc57805182526020820191506020810190506020830392506115d9565b6001836020036101000a038019825116818451168082178552505050505050905001915050908152602001604051809103902080549050116116a6576040517f08c379a00000000000000000000000000000000000000000000000000000000081526004018080602001828103825260198152602001807f596f7520617265206e6f74206120636f6e7472696275746f720000000000000081525060200191505060405180910390fd5b6000600683815481106116b557fe5b9060005260206000209060050201905080600401826040518082805190602001908083835b602083106116fd57805182526020820191506020810190506020830392506116da565b6001836020036101000a038019825116818451168082178552505050505050905001915050908152602001604051809103902060009054906101000a900460ff16156117b1576040517f08c379a000000000000000000000000000000000000000000000000000000000815260040180806020018281038252601d8152602001807f596f75206861766520616c65616479207369676e6564206265666f726500000081525060200191505060405180910390fd5b600181600401836040518082805190602001908083835b602083106117eb57805182526020820191506020810190506020830392506117c8565b6001836020036101000a038019825116818451168082178552505050505050905001915050908152602001604051809103902060006101000a81548160ff0219169083151502179055508060020160008154809291906001019190505550505050565b6000600680549050905090565b828054600181600116156101000203166002900490600052602060002090601f016020900481019282601f1061189c57805160ff19168380011785556118ca565b828001600101855582156118ca579182015b828111156118c95782518255916020019190600101906118ae565b5b5090506118d79190611922565b5090565b6040518060a00160405280606081526020016000815260200160008152602001600015158152602001600073ffffffffffffffffffffffffffffffffffffffff1681525090565b61194491905b80821115611940576000816000905550600101611928565b5090565b9056fe646f6e6174696f6e206d757374206265206d6f7265207468616e20746865206d696e696d756d436f6e747269627574696f6e596f7520617265206e6f7420616c6c6f77656420746f2063616c6c20746869732066756e6374696f6ea26469706673582212208815bedf46a18b32ff1a8f685ea5c04ae40f1f1887e0fb81e62e16e58e83f0cd64736f6c63430006060033",
  "immutableReferences": {},
  "source": "pragma solidity >=0.4.21 <0.7.0;\r\n\r\ncontract CampaignFactory {\r\n    address[] public totalCampaigns;\r\n\r\n    event NewCampaign(\r\n        address indexed campaignAddress,\r\n        address indexed ownerAddress,\r\n        uint256 minimumValue,\r\n        string indexed ownerID\r\n    );\r\n\r\n    function createCampaign(uint256 _minimum, string memory _ownerID) public {\r\n        Campaign newCampaign = new Campaign(_minimum, _ownerID, msg.sender);\r\n        totalCampaigns.push(address(newCampaign));\r\n\r\n        emit NewCampaign(address(newCampaign), msg.sender, _minimum, _ownerID);\r\n    }\r\n\r\n    function getTotalCampaigns() public view returns (address[] memory) {\r\n        return totalCampaigns;\r\n    }\r\n}\r\n\r\ncontract Campaign {\r\n    constructor(\r\n        uint256 _minimun,\r\n        string memory _ownerID,\r\n        address _creator\r\n    ) public {\r\n        minimumContribution = _minimun;\r\n        owner = _creator;\r\n        ownerID = _ownerID;\r\n    }\r\n\r\n    string ownerID;\r\n    uint256 minimumContribution;\r\n    address public owner;\r\n    mapping(string => address[]) approvers;\r\n    string[] approverIDs;\r\n    uint256 public approveCounts;\r\n    RequestInfo[] public requests;\r\n\r\n    struct RequestInfo {\r\n        string description;\r\n        uint256 value;\r\n        uint256 approvalCounts;\r\n        bool complete;\r\n        address payable recipient;\r\n        mapping(string => bool) approvals; // userID => bool\r\n    }\r\n\r\n    event Contribute(\r\n        uint256 balance,\r\n        uint256 approveCounts,\r\n        uint256 contributionAmount,\r\n        string approverID,\r\n        address indexed approverAddress\r\n    );\r\n\r\n    modifier restricted(string memory _ownerID) {\r\n        require(\r\n            msg.sender == owner &&\r\n                keccak256(abi.encodePacked(ownerID)) ==\r\n                keccak256(abi.encodePacked(_ownerID)),\r\n            \"You are not the owner\"\r\n        );\r\n        _;\r\n    }\r\n\r\n    function getMinmum() public view returns (uint256) {\r\n        return minimumContribution;\r\n    }\r\n\r\n    function contribute(string memory _approverID) public payable {\r\n        require(\r\n            msg.value >= minimumContribution,\r\n            \"donation must be more than the minimumContribution\"\r\n        );\r\n        if (approvers[_approverID].length < 1) {\r\n            approveCounts++;\r\n            approvers[_approverID].push(msg.sender);\r\n            approverIDs.push(_approverID);\r\n        } else {\r\n            //      \r\n            address[] storage approverAccounts = approvers[_approverID];\r\n            bool isNew = true;\r\n            for (uint256 i = 0; i < approverAccounts.length; i++) {\r\n                if (approverAccounts[i] == msg.sender) {\r\n                    isNew = false;\r\n                }\r\n            }\r\n\r\n            if (isNew == true) {\r\n                approvers[_approverID].push(msg.sender);\r\n            }\r\n        }\r\n\r\n        emit Contribute(\r\n            address(this).balance,\r\n            approveCounts,\r\n            msg.value,\r\n            _approverID,\r\n            msg.sender\r\n        );\r\n    }\r\n\r\n    function createRequest(\r\n        string memory _description,\r\n        uint256 _value,\r\n        address payable _recipient,\r\n        string memory _ownerID\r\n    ) public restricted(_ownerID) {\r\n        require(_value <= address(this).balance, \"Too much value\");\r\n        RequestInfo memory newRequest = RequestInfo({\r\n            description: _description,\r\n            value: _value,\r\n            recipient: _recipient,\r\n            complete: false,\r\n            approvalCounts: 0\r\n        });\r\n\r\n        requests.push(newRequest);\r\n    }\r\n\r\n    function approveRequest(uint256 _index, string memory _approverID) public {\r\n        require(approvers[_approverID].length > 0, \"You are not a contributor\");\r\n        RequestInfo storage request = requests[_index];\r\n        require(\r\n            !request.approvals[_approverID],\r\n            \"You have aleady signed before\"\r\n        );\r\n\r\n        request.approvals[_approverID] = true;\r\n        request.approvalCounts++;\r\n    }\r\n\r\n    function finalizeRequest(uint256 _index, string memory _callerID) public {\r\n        string memory ownersID = ownerID;\r\n        require(\r\n            approvers[_callerID].length > 0 ||\r\n                keccak256(abi.encodePacked(ownersID)) ==\r\n                keccak256(abi.encodePacked(_callerID)),\r\n            \"You are not allowed to call this function\"\r\n        );\r\n        RequestInfo storage request = requests[_index];\r\n        require(\r\n            request.approvalCounts > (approveCounts / 2),\r\n            \"Not enough approvals\"\r\n        );\r\n        require(!request.complete, \"This request was completed\");\r\n\r\n        request.recipient.transfer(request.value);\r\n        request.complete = true;\r\n    }\r\n\r\n    function getSummary()\r\n        public\r\n        view\r\n        returns (\r\n            uint256,\r\n            uint256,\r\n            uint256,\r\n            uint256,\r\n            address,\r\n            string memory,\r\n            address\r\n        )\r\n    {\r\n        return (\r\n            minimumContribution,\r\n            address(this).balance,\r\n            requests.length,\r\n            approveCounts,\r\n            owner,\r\n            ownerID,\r\n            address(this)\r\n        );\r\n    }\r\n\r\n    function getRequestCounts() public view returns (uint256) {\r\n        return requests.length;\r\n    }\r\n\r\n    function getTotalBalance() public view returns (uint256) {\r\n        return address(this).balance;\r\n    }\r\n}\r\n",
  "sourcePath": "D:\\ \\Solidy\\crowd-chain-react\\contracts\\Campaign.sol",
  "compiler": {
    "name": "solc",
    "version": "0.6.6+commit.6c089d02.Emscripten.clang"
  },
  "schemaVersion": "3.2.0",
  "updatedAt": "2020-11-04T07:20:26.216Z",
  "devdoc": {
    "methods": {}
  },
  "userdoc": {
    "methods": {}
  }
}