{
  "contractName": "Campaign",
  "abi": [
    {
      "inputs": [
        {
          "internalType": "uint256",
          "name": "_minimun",
          "type": "uint256"
        },
        {
          "internalType": "string",
          "name": "_ownerID",
          "type": "string"
        },
        {
          "internalType": "address",
          "name": "_creator",
          "type": "address"
        }
      ],
      "stateMutability": "nonpayable",
      "type": "constructor"
    },
    {
      "anonymous": false,
      "inputs": [
        {
          "indexed": false,
          "internalType": "uint256",
          "name": "balance",
          "type": "uint256"
        },
        {
          "indexed": false,
          "internalType": "uint256",
          "name": "approveCounts",
          "type": "uint256"
        },
        {
          "indexed": true,
          "internalType": "string",
          "name": "approverID",
          "type": "string"
        },
        {
          "indexed": true,
          "internalType": "address",
          "name": "approverAddress",
          "type": "address"
        }
      ],
      "name": "Contribute",
      "type": "event"
    },
    {
      "inputs": [],
      "name": "approveCounts",
      "outputs": [
        {
          "internalType": "uint256",
          "name": "",
          "type": "uint256"
        }
      ],
      "stateMutability": "view",
      "type": "function"
    },
    {
      "inputs": [],
      "name": "owner",
      "outputs": [
        {
          "internalType": "address",
          "name": "",
          "type": "address"
        }
      ],
      "stateMutability": "view",
      "type": "function"
    },
    {
      "inputs": [
        {
          "internalType": "uint256",
          "name": "",
          "type": "uint256"
        }
      ],
      "name": "requests",
      "outputs": [
        {
          "internalType": "string",
          "name": "description",
          "type": "string"
        },
        {
          "internalType": "uint256",
          "name": "value",
          "type": "uint256"
        },
        {
          "internalType": "uint256",
          "name": "approvalCounts",
          "type": "uint256"
        },
        {
          "internalType": "bool",
          "name": "complete",
          "type": "bool"
        },
        {
          "internalType": "address payable",
          "name": "recipient",
          "type": "address"
        }
      ],
      "stateMutability": "view",
      "type": "function"
    },
    {
      "inputs": [],
      "name": "getMinmum",
      "outputs": [
        {
          "internalType": "uint256",
          "name": "",
          "type": "uint256"
        }
      ],
      "stateMutability": "view",
      "type": "function"
    },
    {
      "inputs": [
        {
          "internalType": "string",
          "name": "_approverID",
          "type": "string"
        }
      ],
      "name": "contribute",
      "outputs": [],
      "stateMutability": "payable",
      "type": "function"
    },
    {
      "inputs": [
        {
          "internalType": "string",
          "name": "_description",
          "type": "string"
        },
        {
          "internalType": "uint256",
          "name": "_value",
          "type": "uint256"
        },
        {
          "internalType": "address payable",
          "name": "_recipient",
          "type": "address"
        },
        {
          "internalType": "string",
          "name": "_ownerID",
          "type": "string"
        }
      ],
      "name": "createRequest",
      "outputs": [],
      "stateMutability": "nonpayable",
      "type": "function"
    },
    {
      "inputs": [
        {
          "internalType": "uint256",
          "name": "_index",
          "type": "uint256"
        },
        {
          "internalType": "string",
          "name": "_approverID",
          "type": "string"
        }
      ],
      "name": "approveRequest",
      "outputs": [],
      "stateMutability": "nonpayable",
      "type": "function"
    },
    {
      "inputs": [
        {
          "internalType": "uint256",
          "name": "_index",
          "type": "uint256"
        },
        {
          "internalType": "string",
          "name": "_callerID",
          "type": "string"
        }
      ],
      "name": "finalizeRequest",
      "outputs": [],
      "stateMutability": "nonpayable",
      "type": "function"
    },
    {
      "inputs": [],
      "name": "getSummary",
      "outputs": [
        {
          "internalType": "uint256",
          "name": "",
          "type": "uint256"
        },
        {
          "internalType": "uint256",
          "name": "",
          "type": "uint256"
        },
        {
          "internalType": "uint256",
          "name": "",
          "type": "uint256"
        },
        {
          "internalType": "uint256",
          "name": "",
          "type": "uint256"
        },
        {
          "internalType": "address",
          "name": "",
          "type": "address"
        },
        {
          "internalType": "string",
          "name": "",
          "type": "string"
        },
        {
          "internalType": "address",
          "name": "",
          "type": "address"
        }
      ],
      "stateMutability": "view",
      "type": "function"
    },
    {
      "inputs": [],
      "name": "getRequestCounts",
      "outputs": [
        {
          "internalType": "uint256",
          "name": "",
          "type": "uint256"
        }
      ],
      "stateMutability": "view",
      "type": "function"
    }
  ],
  "bytecode": "0x60806040523480156200001157600080fd5b5060405162001b8238038062001b82833981810160405260608110156200003757600080fd5b8101908080519060200190929190805160405193929190846401000000008211156200006257600080fd5b838201915060208201858111156200007957600080fd5b82518660018202830111640100000000821117156200009757600080fd5b8083526020830192505050908051906020019080838360005b83811015620000cd578082015181840152602081019050620000b0565b50505050905090810190601f168015620000fb5780820380516001836020036101000a031916815260200191505b50604052602001805190602001909291905050508260018190555080600260006101000a81548173ffffffffffffffffffffffffffffffffffffffff021916908373ffffffffffffffffffffffffffffffffffffffff16021790555081600090805190602001906200016f92919062000179565b5050505062000228565b828054600181600116156101000203166002900490600052602060002090601f016020900481019282601f10620001bc57805160ff1916838001178555620001ed565b82800160010185558215620001ed579182015b82811115620001ec578251825591602001919060010190620001cf565b5b509050620001fc919062000200565b5090565b6200022591905b808211156200022157600081600090555060010162000207565b5090565b90565b61194a80620002386000396000f3fe6080604052600436106100915760003560e01c80637a6b3ed9116100595780637a6b3ed91461044257806381d12c58146105145780638da5cb5b14610614578063fe1705931461066b578063fe636f1a1461073d57610091565b80634051ddac146100965780634f3552d2146101a85780635c43217b146101d3578063654f65091461028e57806374d72d2514610417575b600080fd5b3480156100a257600080fd5b506100ab610768565b604051808881526020018781526020018681526020018581526020018473ffffffffffffffffffffffffffffffffffffffff1673ffffffffffffffffffffffffffffffffffffffff168152602001806020018373ffffffffffffffffffffffffffffffffffffffff1673ffffffffffffffffffffffffffffffffffffffff168152602001828103825284818151815260200191508051906020019080838360005b8381101561016757808201518184015260208101905061014c565b50505050905090810190601f1680156101945780820380516001836020036101000a031916815260200191505b509850505050505050505060405180910390f35b3480156101b457600080fd5b506101bd61085a565b6040518082815260200191505060405180910390f35b61028c600480360360208110156101e957600080fd5b810190808035906020019064010000000081111561020657600080fd5b82018360208201111561021857600080fd5b8035906020019184600183028401116401000000008311171561023a57600080fd5b91908080601f016020809104026020016040519081016040528093929190818152602001838380828437600081840152601f19601f820116905080830192505050505050509192919290505050610864565b005b34801561029a57600080fd5b50610415600480360360808110156102b157600080fd5b81019080803590602001906401000000008111156102ce57600080fd5b8201836020820111156102e057600080fd5b8035906020019184600183028401116401000000008311171561030257600080fd5b91908080601f016020809104026020016040519081016040528093929190818152602001838380828437600081840152601f19601f82011690508083019250505050505050919291929080359060200190929190803573ffffffffffffffffffffffffffffffffffffffff1690602001909291908035906020019064010000000081111561038f57600080fd5b8201836020820111156103a157600080fd5b803590602001918460018302840111640100000000831117156103c357600080fd5b91908080601f016020809104026020016040519081016040528093929190818152602001838380828437600081840152601f19601f820116905080830192505050505050509192919290505050610cae565b005b34801561042357600080fd5b5061042c610ff7565b6040518082815260200191505060405180910390f35b34801561044e57600080fd5b506105126004803603604081101561046557600080fd5b81019080803590602001909291908035906020019064010000000081111561048c57600080fd5b82018360208201111561049e57600080fd5b803590602001918460018302840111640100000000831117156104c057600080fd5b91908080601f016020809104026020016040519081016040528093929190818152602001838380828437600081840152601f19601f820116905080830192505050505050509192919290505050610ffd565b005b34801561052057600080fd5b5061054d6004803603602081101561053757600080fd5b8101908080359060200190929190505050611408565b6040518080602001868152602001858152602001841515151581526020018373ffffffffffffffffffffffffffffffffffffffff1673ffffffffffffffffffffffffffffffffffffffff168152602001828103825287818151815260200191508051906020019080838360005b838110156105d55780820151818401526020810190506105ba565b50505050905090810190601f1680156106025780820380516001836020036101000a031916815260200191505b50965050505050505060405180910390f35b34801561062057600080fd5b50610629611510565b604051808273ffffffffffffffffffffffffffffffffffffffff1673ffffffffffffffffffffffffffffffffffffffff16815260200191505060405180910390f35b34801561067757600080fd5b5061073b6004803603604081101561068e57600080fd5b8101908080359060200190929190803590602001906401000000008111156106b557600080fd5b8201836020820111156106c757600080fd5b803590602001918460018302840111640100000000831117156106e957600080fd5b91908080601f016020809104026020016040519081016040528093929190818152602001838380828437600081840152601f19601f820116905080830192505050505050509192919290505050611536565b005b34801561074957600080fd5b506107526117c0565b6040518082815260200191505060405180910390f35b60008060008060006060600060015447600580549050600454600260009054906101000a900473ffffffffffffffffffffffffffffffffffffffff16600030818054600181600116156101000203166002900480601f01602080910402602001604051908101604052809291908181526020018280546001816001161561010002031660029004801561083c5780601f106108115761010080835404028352916020019161083c565b820191906000526020600020905b81548152906001019060200180831161081f57829003601f168201915b50505050509150965096509650965096509650965090919293949596565b6000600154905090565b6001543410156108bf576040517f08c379a00000000000000000000000000000000000000000000000000000000081526004018080602001828103825260328152602001806118ba6032913960400191505060405180910390fd5b60016003826040518082805190602001908083835b602083106108f757805182526020820191506020810190506020830392506108d4565b6001836020036101000a0380198251168184511680821785525050505050509050019150509081526020016040518091039020805490501015610a15576004600081548092919060010191905055506003816040518082805190602001908083835b6020831061097c5780518252602082019150602081019050602083039250610959565b6001836020036101000a0380198251168184511680821785525050505050509050019150509081526020016040518091039020339080600181540180825580915050600190039060005260206000200160009091909190916101000a81548173ffffffffffffffffffffffffffffffffffffffff021916908373ffffffffffffffffffffffffffffffffffffffff160217905550610bf2565b60006003826040518082805190602001908083835b60208310610a4d5780518252602082019150602081019050602083039250610a2a565b6001836020036101000a0380198251168184511680821785525050505050509050019150509081526020016040518091039020905060006001905060008090505b8280549050811015610b16573373ffffffffffffffffffffffffffffffffffffffff16838281548110610abd57fe5b9060005260206000200160009054906101000a900473ffffffffffffffffffffffffffffffffffffffff1673ffffffffffffffffffffffffffffffffffffffff161415610b0957600091505b8080600101915050610a8e565b50600115158115151415610bef576003836040518082805190602001908083835b60208310610b5a5780518252602082019150602081019050602083039250610b37565b6001836020036101000a0380198251168184511680821785525050505050509050019150509081526020016040518091039020339080600181540180825580915050600190039060005260206000200160009091909190916101000a81548173ffffffffffffffffffffffffffffffffffffffff021916908373ffffffffffffffffffffffffffffffffffffffff1602179055505b50505b3373ffffffffffffffffffffffffffffffffffffffff16816040518082805190602001908083835b60208310610c3d5780518252602082019150602081019050602083039250610c1a565b6001836020036101000a03801982511681845116808217855250505050505090500191505060405180910390207f58a9083ce95a673df5f7fefbfed9c9fb492fef64b2c93497300909ba0ffdf1fb47600454604051808381526020018281526020019250505060405180910390a350565b80600260009054906101000a900473ffffffffffffffffffffffffffffffffffffffff1673ffffffffffffffffffffffffffffffffffffffff163373ffffffffffffffffffffffffffffffffffffffff16148015610df65750806040516020018082805190602001908083835b60208310610d3e5780518252602082019150602081019050602083039250610d1b565b6001836020036101000a0380198251168184511680821785525050505050509050019150506040516020818303038152906040528051906020012060006040516020018082805460018160011615610100020316600290048015610dd95780601f10610db7576101008083540402835291820191610dd9565b820191906000526020600020905b815481529060010190602001808311610dc5575b505091505060405160208183030381529060405280519060200120145b610e68576040517f08c379a00000000000000000000000000000000000000000000000000000000081526004018080602001828103825260158152602001807f596f7520617265206e6f7420746865206f776e6572000000000000000000000081525060200191505060405180910390fd5b47841115610ede576040517f08c379a000000000000000000000000000000000000000000000000000000000815260040180806020018281038252600e8152602001807f546f6f206d7563682076616c756500000000000000000000000000000000000081525060200191505060405180910390fd5b610ee66117cd565b6040518060a00160405280878152602001868152602001600081526020016000151581526020018573ffffffffffffffffffffffffffffffffffffffff16815250905060058190806001815401808255809150506001900390600052602060002090600502016000909190919091506000820151816000019080519060200190610f71929190611814565b50602082015181600101556040820151816002015560608201518160030160006101000a81548160ff02191690831515021790555060808201518160030160016101000a81548173ffffffffffffffffffffffffffffffffffffffff021916908373ffffffffffffffffffffffffffffffffffffffff1602179055505050505050505050565b60045481565b606060008054600181600116156101000203166002900480601f0160208091040260200160405190810160405280929190818152602001828054600181600116156101000203166002900480156110955780601f1061106a57610100808354040283529160200191611095565b820191906000526020600020905b81548152906001019060200180831161107857829003601f168201915b5050505050905060006003836040518082805190602001908083835b602083106110d457805182526020820191506020810190506020830392506110b1565b6001836020036101000a03801982511681845116808217855250505050505090500191505090815260200160405180910390208054905011806111f85750816040516020018082805190602001908083835b602083106111495780518252602082019150602081019050602083039250611126565b6001836020036101000a03801982511681845116808217855250505050505090500191505060405160208183030381529060405280519060200120816040516020018082805190602001908083835b602083106111bb5780518252602082019150602081019050602083039250611198565b6001836020036101000a03801982511681845116808217855250505050505090500191505060405160208183030381529060405280519060200120145b61124d576040517f08c379a00000000000000000000000000000000000000000000000000000000081526004018080602001828103825260298152602001806118ec6029913960400191505060405180910390fd5b60006005848154811061125c57fe5b9060005260206000209060050201905060026004548161127857fe5b048160020154116112f1576040517f08c379a00000000000000000000000000000000000000000000000000000000081526004018080602001828103825260148152602001807f4e6f7420656e6f75676820617070726f76616c7300000000000000000000000081525060200191505060405180910390fd5b8060030160009054906101000a900460ff1615611376576040517f08c379a000000000000000000000000000000000000000000000000000000000815260040180806020018281038252601a8152602001807f5468697320726571756573742077617320636f6d706c6574656400000000000081525060200191505060405180910390fd5b8060030160019054906101000a900473ffffffffffffffffffffffffffffffffffffffff1673ffffffffffffffffffffffffffffffffffffffff166108fc82600101549081150290604051600060405180830381858888f193505050501580156113e4573d6000803e3d6000fd5b5060018160030160006101000a81548160ff02191690831515021790555050505050565b6005818154811061141557fe5b9060005260206000209060050201600091509050806000018054600181600116156101000203166002900480601f0160208091040260200160405190810160405280929190818152602001828054600181600116156101000203166002900480156114c15780601f10611496576101008083540402835291602001916114c1565b820191906000526020600020905b8154815290600101906020018083116114a457829003601f168201915b5050505050908060010154908060020154908060030160009054906101000a900460ff16908060030160019054906101000a900473ffffffffffffffffffffffffffffffffffffffff16905085565b600260009054906101000a900473ffffffffffffffffffffffffffffffffffffffff1681565b60006003826040518082805190602001908083835b6020831061156e578051825260208201915060208101905060208303925061154b565b6001836020036101000a03801982511681845116808217855250505050505090500191505090815260200160405180910390208054905011611618576040517f08c379a00000000000000000000000000000000000000000000000000000000081526004018080602001828103825260198152602001807f596f7520617265206e6f74206120636f6e7472696275746f720000000000000081525060200191505060405180910390fd5b60006005838154811061162757fe5b9060005260206000209060050201905080600401826040518082805190602001908083835b6020831061166f578051825260208201915060208101905060208303925061164c565b6001836020036101000a038019825116818451168082178552505050505050905001915050908152602001604051809103902060009054906101000a900460ff1615611723576040517f08c379a000000000000000000000000000000000000000000000000000000000815260040180806020018281038252601d8152602001807f596f75206861766520616c65616479207369676e6564206265666f726500000081525060200191505060405180910390fd5b600181600401836040518082805190602001908083835b6020831061175d578051825260208201915060208101905060208303925061173a565b6001836020036101000a038019825116818451168082178552505050505050905001915050908152602001604051809103902060006101000a81548160ff0219169083151502179055508060020160008154809291906001019190505550505050565b6000600580549050905090565b6040518060a00160405280606081526020016000815260200160008152602001600015158152602001600073ffffffffffffffffffffffffffffffffffffffff1681525090565b828054600181600116156101000203166002900490600052602060002090601f016020900481019282601f1061185557805160ff1916838001178555611883565b82800160010185558215611883579182015b82811115611882578251825591602001919060010190611867565b5b5090506118909190611894565b5090565b6118b691905b808211156118b257600081600090555060010161189a565b5090565b9056fe646f6e6174696f6e206d757374206265206d6f7265207468616e20746865206d696e696d756d436f6e747269627574696f6e596f7520617265206e6f7420616c6c6f77656420746f2063616c6c20746869732066756e6374696f6ea2646970667358221220bddf03b7ef2b700285a46804ee89bffa55a7545d50e14fd983b0aeccf9b83b5264736f6c63430006060033",
  "immutableReferences": {},
  "source": "pragma solidity >=0.4.21 <0.7.0;\r\n\r\ncontract CampaignFactory {\r\n    address[] public totalCampaigns;\r\n\r\n    event NewCampaign(\r\n        address indexed campaignAddress,\r\n        address indexed ownerAddress,\r\n        uint256 minimumValue,\r\n        string indexed ownerID\r\n    );\r\n\r\n    function createCampaign(uint256 _minimum, string memory _ownerID) public {\r\n        Campaign newCampaign = new Campaign(_minimum, _ownerID, msg.sender);\r\n        totalCampaigns.push(address(newCampaign));\r\n\r\n        emit NewCampaign(address(newCampaign), msg.sender, _minimum, _ownerID);\r\n    }\r\n\r\n    function getTotalCampaigns() public view returns (address[] memory) {\r\n        return totalCampaigns;\r\n    }\r\n}\r\n\r\ncontract Campaign {\r\n    constructor(\r\n        uint256 _minimun,\r\n        string memory _ownerID,\r\n        address _creator\r\n    ) public {\r\n        minimumContribution = _minimun;\r\n        owner = _creator;\r\n        ownerID = _ownerID;\r\n    }\r\n\r\n    string ownerID;\r\n    uint256 minimumContribution;\r\n    address public owner;\r\n    mapping(string => address[]) approvers;\r\n    uint256 public approveCounts;\r\n    RequestInfo[] public requests;\r\n\r\n    struct RequestInfo {\r\n        string description;\r\n        uint256 value;\r\n        uint256 approvalCounts;\r\n        bool complete;\r\n        address payable recipient;\r\n        mapping(string => bool) approvals; // userID => bool\r\n    }\r\n\r\n    event Contribute(\r\n        uint256 balance,\r\n        uint256 approveCounts,\r\n        string indexed approverID,\r\n        address indexed approverAddress\r\n    );\r\n\r\n    modifier restricted(string memory _ownerID) {\r\n        require(\r\n            msg.sender == owner &&\r\n                keccak256(abi.encodePacked(ownerID)) ==\r\n                keccak256(abi.encodePacked(_ownerID)),\r\n            \"You are not the owner\"\r\n        );\r\n        _;\r\n    }\r\n\r\n    function getMinmum() public view returns (uint256) {\r\n        return minimumContribution;\r\n    }\r\n\r\n    function contribute(string memory _approverID) public payable {\r\n        require(\r\n            msg.value >= minimumContribution,\r\n            \"donation must be more than the minimumContribution\"\r\n        );\r\n        if (approvers[_approverID].length < 1) {\r\n            approveCounts++;\r\n            approvers[_approverID].push(msg.sender);\r\n        } else {\r\n            //      \r\n            address[] storage approverAccounts = approvers[_approverID];\r\n            bool isNew = true;\r\n            for (uint256 i = 0; i < approverAccounts.length; i++) {\r\n                if (approverAccounts[i] == msg.sender) {\r\n                    isNew = false;\r\n                }\r\n            }\r\n\r\n            if (isNew == true) {\r\n                approvers[_approverID].push(msg.sender);\r\n            }\r\n        }\r\n\r\n        emit Contribute(\r\n            address(this).balance,\r\n            approveCounts,\r\n            _approverID,\r\n            msg.sender\r\n        );\r\n    }\r\n\r\n    function createRequest(\r\n        string memory _description,\r\n        uint256 _value,\r\n        address payable _recipient,\r\n        string memory _ownerID\r\n    ) public restricted(_ownerID) {\r\n        require(_value <= address(this).balance, \"Too much value\");\r\n        RequestInfo memory newRequest = RequestInfo({\r\n            description: _description,\r\n            value: _value,\r\n            recipient: _recipient,\r\n            complete: false,\r\n            approvalCounts: 0\r\n        });\r\n\r\n        requests.push(newRequest);\r\n    }\r\n\r\n    function approveRequest(uint256 _index, string memory _approverID) public {\r\n        require(approvers[_approverID].length > 0, \"You are not a contributor\");\r\n        RequestInfo storage request = requests[_index];\r\n        require(\r\n            !request.approvals[_approverID],\r\n            \"You have aleady signed before\"\r\n        );\r\n\r\n        request.approvals[_approverID] = true;\r\n        request.approvalCounts++;\r\n    }\r\n\r\n    function finalizeRequest(uint256 _index, string memory _callerID) public {\r\n        string memory ownersID = ownerID;\r\n        require(\r\n            approvers[_callerID].length > 0 ||\r\n                keccak256(abi.encodePacked(ownersID)) ==\r\n                keccak256(abi.encodePacked(_callerID)),\r\n            \"You are not allowed to call this function\"\r\n        );\r\n        RequestInfo storage request = requests[_index];\r\n        require(\r\n            request.approvalCounts > (approveCounts / 2),\r\n            \"Not enough approvals\"\r\n        );\r\n        require(!request.complete, \"This request was completed\");\r\n\r\n        request.recipient.transfer(request.value);\r\n        request.complete = true;\r\n    }\r\n\r\n    function getSummary()\r\n        public\r\n        view\r\n        returns (\r\n            uint256,\r\n            uint256,\r\n            uint256,\r\n            uint256,\r\n            address,\r\n            string memory,\r\n            address\r\n        )\r\n    {\r\n        return (\r\n            minimumContribution,\r\n            address(this).balance,\r\n            requests.length,\r\n            approveCounts,\r\n            owner,\r\n            ownerID,\r\n            address(this)\r\n        );\r\n    }\r\n\r\n    function getRequestCounts() public view returns (uint256) {\r\n        return requests.length;\r\n    }\r\n}\r\n",
  "sourcePath": "D:\\ \\Solidy\\crowd-chain-react\\contracts\\Campaign.sol",
  "compiler": {
    "name": "solc",
    "version": "0.6.6+commit.6c089d02.Emscripten.clang"
  },
  "schemaVersion": "3.2.0",
  "updatedAt": "2020-11-03T12:01:14.251Z",
  "devdoc": {
    "methods": {}
  },
  "userdoc": {
    "methods": {}
  }
}