{
  "contractName": "Campaign",
  "abi": [
    {
      "inputs": [
        {
          "internalType": "uint256",
          "name": "_minimun",
          "type": "uint256"
        },
        {
          "internalType": "string",
          "name": "_ownerID",
          "type": "string"
        },
        {
          "internalType": "address",
          "name": "_creator",
          "type": "address"
        }
      ],
      "stateMutability": "nonpayable",
      "type": "constructor"
    },
    {
      "anonymous": false,
      "inputs": [
        {
          "indexed": false,
          "internalType": "uint256",
          "name": "balance",
          "type": "uint256"
        },
        {
          "indexed": false,
          "internalType": "uint256",
          "name": "approveCounts",
          "type": "uint256"
        },
        {
          "indexed": false,
          "internalType": "uint256",
          "name": "contributionAmount",
          "type": "uint256"
        },
        {
          "indexed": false,
          "internalType": "string",
          "name": "approverID",
          "type": "string"
        },
        {
          "indexed": true,
          "internalType": "address",
          "name": "approverAddress",
          "type": "address"
        }
      ],
      "name": "Contribute",
      "type": "event"
    },
    {
      "inputs": [],
      "name": "approveCounts",
      "outputs": [
        {
          "internalType": "uint256",
          "name": "",
          "type": "uint256"
        }
      ],
      "stateMutability": "view",
      "type": "function"
    },
    {
      "inputs": [
        {
          "internalType": "uint256",
          "name": "",
          "type": "uint256"
        }
      ],
      "name": "approverIDs",
      "outputs": [
        {
          "internalType": "string",
          "name": "",
          "type": "string"
        }
      ],
      "stateMutability": "view",
      "type": "function"
    },
    {
      "inputs": [],
      "name": "owner",
      "outputs": [
        {
          "internalType": "address",
          "name": "",
          "type": "address"
        }
      ],
      "stateMutability": "view",
      "type": "function"
    },
    {
      "inputs": [],
      "name": "ownerID",
      "outputs": [
        {
          "internalType": "string",
          "name": "",
          "type": "string"
        }
      ],
      "stateMutability": "view",
      "type": "function"
    },
    {
      "inputs": [
        {
          "internalType": "uint256",
          "name": "",
          "type": "uint256"
        }
      ],
      "name": "requests",
      "outputs": [
        {
          "internalType": "string",
          "name": "description",
          "type": "string"
        },
        {
          "internalType": "uint256",
          "name": "value",
          "type": "uint256"
        },
        {
          "internalType": "uint256",
          "name": "approvalCounts",
          "type": "uint256"
        },
        {
          "internalType": "bool",
          "name": "complete",
          "type": "bool"
        },
        {
          "internalType": "address payable",
          "name": "recipient",
          "type": "address"
        }
      ],
      "stateMutability": "view",
      "type": "function"
    },
    {
      "inputs": [],
      "name": "getParticipants",
      "outputs": [
        {
          "internalType": "string",
          "name": "",
          "type": "string"
        },
        {
          "internalType": "string[]",
          "name": "",
          "type": "string[]"
        }
      ],
      "stateMutability": "view",
      "type": "function"
    },
    {
      "inputs": [],
      "name": "getMinmum",
      "outputs": [
        {
          "internalType": "uint256",
          "name": "",
          "type": "uint256"
        }
      ],
      "stateMutability": "view",
      "type": "function"
    },
    {
      "inputs": [
        {
          "internalType": "string",
          "name": "_approverID",
          "type": "string"
        }
      ],
      "name": "contribute",
      "outputs": [],
      "stateMutability": "payable",
      "type": "function"
    },
    {
      "inputs": [
        {
          "internalType": "string",
          "name": "_description",
          "type": "string"
        },
        {
          "internalType": "uint256",
          "name": "_value",
          "type": "uint256"
        },
        {
          "internalType": "address payable",
          "name": "_recipient",
          "type": "address"
        },
        {
          "internalType": "string",
          "name": "_ownerID",
          "type": "string"
        }
      ],
      "name": "createRequest",
      "outputs": [],
      "stateMutability": "nonpayable",
      "type": "function"
    },
    {
      "inputs": [
        {
          "internalType": "uint256",
          "name": "_index",
          "type": "uint256"
        },
        {
          "internalType": "string",
          "name": "_approverID",
          "type": "string"
        }
      ],
      "name": "approveRequest",
      "outputs": [],
      "stateMutability": "nonpayable",
      "type": "function"
    },
    {
      "inputs": [
        {
          "internalType": "uint256",
          "name": "_index",
          "type": "uint256"
        },
        {
          "internalType": "string",
          "name": "_callerID",
          "type": "string"
        }
      ],
      "name": "finalizeRequest",
      "outputs": [],
      "stateMutability": "nonpayable",
      "type": "function"
    },
    {
      "inputs": [
        {
          "internalType": "uint256",
          "name": "_index",
          "type": "uint256"
        },
        {
          "internalType": "string",
          "name": "_callerID",
          "type": "string"
        }
      ],
      "name": "getApproveState",
      "outputs": [
        {
          "internalType": "bool",
          "name": "",
          "type": "bool"
        }
      ],
      "stateMutability": "view",
      "type": "function"
    },
    {
      "inputs": [],
      "name": "getSummary",
      "outputs": [
        {
          "internalType": "uint256",
          "name": "",
          "type": "uint256"
        },
        {
          "internalType": "uint256",
          "name": "",
          "type": "uint256"
        },
        {
          "internalType": "uint256",
          "name": "",
          "type": "uint256"
        },
        {
          "internalType": "uint256",
          "name": "",
          "type": "uint256"
        },
        {
          "internalType": "address",
          "name": "",
          "type": "address"
        },
        {
          "internalType": "string",
          "name": "",
          "type": "string"
        },
        {
          "internalType": "address",
          "name": "",
          "type": "address"
        }
      ],
      "stateMutability": "view",
      "type": "function"
    },
    {
      "inputs": [],
      "name": "getRequestCounts",
      "outputs": [
        {
          "internalType": "uint256",
          "name": "",
          "type": "uint256"
        }
      ],
      "stateMutability": "view",
      "type": "function"
    },
    {
      "inputs": [],
      "name": "getTotalBalance",
      "outputs": [
        {
          "internalType": "uint256",
          "name": "",
          "type": "uint256"
        }
      ],
      "stateMutability": "view",
      "type": "function"
    }
  ],
  "bytecode": "0x60806040523480156200001157600080fd5b506040516200217f3803806200217f8339818101604052810190620000379190620001da565b8260018190555080600260006101000a81548173ffffffffffffffffffffffffffffffffffffffff021916908373ffffffffffffffffffffffffffffffffffffffff160217905550816000908051906020019062000097929190620000a1565b505050506200034c565b828054600181600116156101000203166002900490600052602060002090601f016020900481019282601f10620000e457805160ff191683800117855562000115565b8280016001018555821562000115579182015b8281111562000114578251825591602001919060010190620000f7565b5b50905062000124919062000128565b5090565b6200014d91905b80821115620001495760008160009055506001016200012f565b5090565b90565b600081519050620001618162000318565b92915050565b600082601f8301126200017957600080fd5b8151620001906200018a8262000277565b62000249565b91508082526020830160208301858383011115620001ad57600080fd5b620001ba838284620002e2565b50505092915050565b600081519050620001d48162000332565b92915050565b600080600060608486031215620001f057600080fd5b60006200020086828701620001c3565b935050602084015167ffffffffffffffff8111156200021e57600080fd5b6200022c8682870162000167565b92505060406200023f8682870162000150565b9150509250925092565b6000604051905081810181811067ffffffffffffffff821117156200026d57600080fd5b8060405250919050565b600067ffffffffffffffff8211156200028f57600080fd5b601f19601f8301169050602081019050919050565b6000620002b182620002b8565b9050919050565b600073ffffffffffffffffffffffffffffffffffffffff82169050919050565b6000819050919050565b60005b8381101562000302578082015181840152602081019050620002e5565b8381111562000312576000848401525b50505050565b6200032381620002a4565b81146200032f57600080fd5b50565b6200033d81620002d8565b81146200034957600080fd5b50565b611e23806200035c6000396000f3fe6080604052600436106100e85760003560e01c806374d72d251161008a578063b88f430a11610059578063b88f430a146102e2578063d924100e1461031f578063fe1705931461034a578063fe636f1a14610373576100e8565b806374d72d25146102225780637a6b3ed91461024d57806381d12c58146102765780638da5cb5b146102b7576100e8565b80634f3552d2116100c65780634f3552d2146101865780635aa68ac0146101b15780635c43217b146101dd578063654f6509146101f9576100e8565b806312b58349146100ed5780632b9334b9146101185780634051ddac14610155575b600080fd5b3480156100f957600080fd5b5061010261039e565b60405161010f9190611b56565b60405180910390f35b34801561012457600080fd5b5061013f600480360381019061013a9190611480565b6103a6565b60405161014c91906119a3565b60405180910390f35b34801561016157600080fd5b5061016a61045f565b60405161017d9796959493929190611bbd565b60405180910390f35b34801561019257600080fd5b5061019b610551565b6040516101a89190611b56565b60405180910390f35b3480156101bd57600080fd5b506101c661055b565b6040516101d49291906119c5565b60405180910390f35b6101f760048036038101906101f291906113ac565b6106ef565b005b34801561020557600080fd5b50610220600480360381019061021b91906113ed565b6109d0565b005b34801561022e57600080fd5b50610237610c15565b6040516102449190611b56565b60405180910390f35b34801561025957600080fd5b50610274600480360381019061026f91906114a9565b610c1b565b005b34801561028257600080fd5b5061029d60048036038101906102989190611480565b610ec9565b6040516102ae9594939291906119fc565b60405180910390f35b3480156102c357600080fd5b506102cc610fd1565b6040516102d9919061196d565b60405180910390f35b3480156102ee57600080fd5b50610309600480360381019061030491906114a9565b610ff7565b6040516103169190611988565b60405180910390f35b34801561032b57600080fd5b50610334611054565b60405161034191906119a3565b60405180910390f35b34801561035657600080fd5b50610371600480360381019061036c91906114a9565b6110f2565b005b34801561037f57600080fd5b50610388611235565b6040516103959190611b56565b60405180910390f35b600047905090565b600481815481106103b357fe5b906000526020600020016000915090508054600181600116156101000203166002900480601f0160208091040260200160405190810160405280929190818152602001828054600181600116156101000203166002900480156104575780601f1061042c57610100808354040283529160200191610457565b820191906000526020600020905b81548152906001019060200180831161043a57829003601f168201915b505050505081565b60008060008060006060600060015447600680549050600554600260009054906101000a900473ffffffffffffffffffffffffffffffffffffffff16600030818054600181600116156101000203166002900480601f0160208091040260200160405190810160405280929190818152602001828054600181600116156101000203166002900480156105335780601f1061050857610100808354040283529160200191610533565b820191906000526020600020905b81548152906001019060200180831161051657829003601f168201915b50505050509150965096509650965096509650965090919293949596565b6000600154905090565b606080606060008054600181600116156101000203166002900480601f0160208091040260200160405190810160405280929190818152602001828054600181600116156101000203166002900480156105f65780601f106105cb576101008083540402835291602001916105f6565b820191906000526020600020905b8154815290600101906020018083116105d957829003601f168201915b5050505050905060606004805480602002602001604051908101604052809291908181526020016000905b828210156106dd578382906000526020600020018054600181600116156101000203166002900480601f0160208091040260200160405190810160405280929190818152602001828054600181600116156101000203166002900480156106c95780601f1061069e576101008083540402835291602001916106c9565b820191906000526020600020905b8154815290600101906020018083116106ac57829003601f168201915b505050505081526020019060010190610621565b50505050905081819350935050509091565b600154341015610734576040517f08c379a000000000000000000000000000000000000000000000000000000000815260040161072b90611ab6565b60405180910390fd5b6001600382604051610746919061193f565b908152602001604051809103902080549050101561083057600560008154809291906001019190505550600381604051610780919061193f565b9081526020016040518091039020339080600181540180825580915050600190039060005260206000200160009091909190916101000a81548173ffffffffffffffffffffffffffffffffffffffff021916908373ffffffffffffffffffffffffffffffffffffffff16021790555060048190806001815401808255809150506001900390600052602060002001600090919091909150908051906020019061082a929190611242565b50610977565b6000600382604051610842919061193f565b9081526020016040518091039020905060006001905060008090505b82805490508110156108e6573373ffffffffffffffffffffffffffffffffffffffff1683828154811061088d57fe5b9060005260206000200160009054906101000a900473ffffffffffffffffffffffffffffffffffffffff1673ffffffffffffffffffffffffffffffffffffffff1614156108d957600091505b808060010191505061085e565b5060011515811515141561097457600383604051610904919061193f565b9081526020016040518091039020339080600181540180825580915050600190039060005260206000200160009091909190916101000a81548173ffffffffffffffffffffffffffffffffffffffff021916908373ffffffffffffffffffffffffffffffffffffffff1602179055505b50505b3373ffffffffffffffffffffffffffffffffffffffff167f54f4f40bee8a9fab27595bbaa23453787ac66177f983b1cd06a240ba9c3e98704760055434856040516109c59493929190611b71565b60405180910390a250565b80600260009054906101000a900473ffffffffffffffffffffffffffffffffffffffff1673ffffffffffffffffffffffffffffffffffffffff163373ffffffffffffffffffffffffffffffffffffffff16148015610a7a575080604051602001610a3a919061193f565b604051602081830303815290604052805190602001206000604051602001610a629190611956565b60405160208183030381529060405280519060200120145b610ab9576040517f08c379a0000000000000000000000000000000000000000000000000000000008152600401610ab090611a96565b60405180910390fd5b47841115610afc576040517f08c379a0000000000000000000000000000000000000000000000000000000008152600401610af390611af6565b60405180910390fd5b610b046112c2565b6040518060a00160405280878152602001868152602001600081526020016000151581526020018573ffffffffffffffffffffffffffffffffffffffff16815250905060068190806001815401808255809150506001900390600052602060002090600502016000909190919091506000820151816000019080519060200190610b8f929190611242565b50602082015181600101556040820151816002015560608201518160030160006101000a81548160ff02191690831515021790555060808201518160030160016101000a81548173ffffffffffffffffffffffffffffffffffffffff021916908373ffffffffffffffffffffffffffffffffffffffff1602179055505050505050505050565b60055481565b606060008054600181600116156101000203166002900480601f016020809104026020016040519081016040528092919081815260200182805460018160011615610100020316600290048015610cb35780601f10610c8857610100808354040283529160200191610cb3565b820191906000526020600020905b815481529060010190602001808311610c9657829003601f168201915b505050505090506000600383604051610ccc919061193f565b9081526020016040518091039020805490501180610d35575081604051602001610cf6919061193f565b6040516020818303038152906040528051906020012081604051602001610d1d919061193f565b60405160208183030381529060405280519060200120145b610d74576040517f08c379a0000000000000000000000000000000000000000000000000000000008152600401610d6b90611b16565b60405180910390fd5b600060068481548110610d8357fe5b90600052602060002090600502019050600260055481610d9f57fe5b04816002015411610de5576040517f08c379a0000000000000000000000000000000000000000000000000000000008152600401610ddc90611b36565b60405180910390fd5b8060030160009054906101000a900460ff1615610e37576040517f08c379a0000000000000000000000000000000000000000000000000000000008152600401610e2e90611a56565b60405180910390fd5b8060030160019054906101000a900473ffffffffffffffffffffffffffffffffffffffff1673ffffffffffffffffffffffffffffffffffffffff166108fc82600101549081150290604051600060405180830381858888f19350505050158015610ea5573d6000803e3d6000fd5b5060018160030160006101000a81548160ff02191690831515021790555050505050565b60068181548110610ed657fe5b9060005260206000209060050201600091509050806000018054600181600116156101000203166002900480601f016020809104026020016040519081016040528092919081815260200182805460018160011615610100020316600290048015610f825780601f10610f5757610100808354040283529160200191610f82565b820191906000526020600020905b815481529060010190602001808311610f6557829003601f168201915b5050505050908060010154908060020154908060030160009054906101000a900460ff16908060030160019054906101000a900473ffffffffffffffffffffffffffffffffffffffff16905085565b600260009054906101000a900473ffffffffffffffffffffffffffffffffffffffff1681565b6000806006848154811061100757fe5b906000526020600020906005020190506000816004018460405161102b919061193f565b908152602001604051809103902060009054906101000a900460ff169050809250505092915050565b60008054600181600116156101000203166002900480601f0160208091040260200160405190810160405280929190818152602001828054600181600116156101000203166002900480156110ea5780601f106110bf576101008083540402835291602001916110ea565b820191906000526020600020905b8154815290600101906020018083116110cd57829003601f168201915b505050505081565b6000600382604051611104919061193f565b90815260200160405180910390208054905011611156576040517f08c379a000000000000000000000000000000000000000000000000000000000815260040161114d90611ad6565b60405180910390fd5b60006006838154811061116557fe5b906000526020600020906005020190508060040182604051611187919061193f565b908152602001604051809103902060009054906101000a900460ff16156111e3576040517f08c379a00000000000000000000000000000000000000000000000000000000081526004016111da90611a76565b60405180910390fd5b600181600401836040516111f7919061193f565b908152602001604051809103902060006101000a81548160ff0219169083151502179055508060020160008154809291906001019190505550505050565b6000600680549050905090565b828054600181600116156101000203166002900490600052602060002090601f016020900481019282601f1061128357805160ff19168380011785556112b1565b828001600101855582156112b1579182015b828111156112b0578251825591602001919060010190611295565b5b5090506112be9190611309565b5090565b6040518060a00160405280606081526020016000815260200160008152602001600015158152602001600073ffffffffffffffffffffffffffffffffffffffff1681525090565b61132b91905b8082111561132757600081600090555060010161130f565b5090565b90565b60008135905061133d81611dbf565b92915050565b600082601f83011261135457600080fd5b813561136761136282611c60565b611c33565b9150808252602083016020830185838301111561138357600080fd5b61138e838284611d6c565b50505092915050565b6000813590506113a681611dd6565b92915050565b6000602082840312156113be57600080fd5b600082013567ffffffffffffffff8111156113d857600080fd5b6113e484828501611343565b91505092915050565b6000806000806080858703121561140357600080fd5b600085013567ffffffffffffffff81111561141d57600080fd5b61142987828801611343565b945050602061143a87828801611397565b935050604061144b8782880161132e565b925050606085013567ffffffffffffffff81111561146857600080fd5b61147487828801611343565b91505092959194509250565b60006020828403121561149257600080fd5b60006114a084828501611397565b91505092915050565b600080604083850312156114bc57600080fd5b60006114ca85828601611397565b925050602083013567ffffffffffffffff8111156114e757600080fd5b6114f385828601611343565b9150509250929050565b600061150983836115b3565b905092915050565b61151a81611d24565b82525050565b61152981611d12565b82525050565b600061153a82611cb1565b6115448185611cd4565b93508360208202850161155685611c8c565b8060005b85811015611592578484038952815161157385826114fd565b945061157e83611cc7565b925060208a0199505060018101905061155a565b50829750879550505050505092915050565b6115ad81611d36565b82525050565b60006115be82611cbc565b6115c88185611ce5565b93506115d8818560208601611d7b565b6115e181611dae565b840191505092915050565b60006115f782611cbc565b6116018185611cf6565b9350611611818560208601611d7b565b61161a81611dae565b840191505092915050565b600061163082611cbc565b61163a8185611d07565b935061164a818560208601611d7b565b80840191505092915050565b6000815460018116600081146116735760018114611698576116dc565b607f60028304166116848187611d07565b955060ff19831686528086019350506116dc565b600282046116a68187611d07565b95506116b185611c9c565b60005b828110156116d3578154818901526001820191506020810190506116b4565b82880195505050505b505092915050565b60006116f1601a83611cf6565b91507f5468697320726571756573742077617320636f6d706c657465640000000000006000830152602082019050919050565b6000611731601d83611cf6565b91507f596f75206861766520616c65616479207369676e6564206265666f72650000006000830152602082019050919050565b6000611771601583611cf6565b91507f596f7520617265206e6f7420746865206f776e657200000000000000000000006000830152602082019050919050565b60006117b1603283611cf6565b91507f646f6e6174696f6e206d757374206265206d6f7265207468616e20746865206d60008301527f696e696d756d436f6e747269627574696f6e00000000000000000000000000006020830152604082019050919050565b6000611817601983611cf6565b91507f596f7520617265206e6f74206120636f6e7472696275746f72000000000000006000830152602082019050919050565b6000611857600e83611cf6565b91507f546f6f206d7563682076616c75650000000000000000000000000000000000006000830152602082019050919050565b6000611897602983611cf6565b91507f596f7520617265206e6f7420616c6c6f77656420746f2063616c6c207468697360008301527f2066756e6374696f6e00000000000000000000000000000000000000000000006020830152604082019050919050565b60006118fd601483611cf6565b91507f4e6f7420656e6f75676820617070726f76616c730000000000000000000000006000830152602082019050919050565b61193981611d62565b82525050565b600061194b8284611625565b915081905092915050565b60006119628284611656565b915081905092915050565b60006020820190506119826000830184611520565b92915050565b600060208201905061199d60008301846115a4565b92915050565b600060208201905081810360008301526119bd81846115ec565b905092915050565b600060408201905081810360008301526119df81856115ec565b905081810360208301526119f3818461152f565b90509392505050565b600060a0820190508181036000830152611a1681886115ec565b9050611a256020830187611930565b611a326040830186611930565b611a3f60608301856115a4565b611a4c6080830184611511565b9695505050505050565b60006020820190508181036000830152611a6f816116e4565b9050919050565b60006020820190508181036000830152611a8f81611724565b9050919050565b60006020820190508181036000830152611aaf81611764565b9050919050565b60006020820190508181036000830152611acf816117a4565b9050919050565b60006020820190508181036000830152611aef8161180a565b9050919050565b60006020820190508181036000830152611b0f8161184a565b9050919050565b60006020820190508181036000830152611b2f8161188a565b9050919050565b60006020820190508181036000830152611b4f816118f0565b9050919050565b6000602082019050611b6b6000830184611930565b92915050565b6000608082019050611b866000830187611930565b611b936020830186611930565b611ba06040830185611930565b8181036060830152611bb281846115ec565b905095945050505050565b600060e082019050611bd2600083018a611930565b611bdf6020830189611930565b611bec6040830188611930565b611bf96060830187611930565b611c066080830186611520565b81810360a0830152611c1881856115ec565b9050611c2760c0830184611520565b98975050505050505050565b6000604051905081810181811067ffffffffffffffff82111715611c5657600080fd5b8060405250919050565b600067ffffffffffffffff821115611c7757600080fd5b601f19601f8301169050602081019050919050565b6000819050602082019050919050565b60008190508160005260206000209050919050565b600081519050919050565b600081519050919050565b6000602082019050919050565b600082825260208201905092915050565b600082825260208201905092915050565b600082825260208201905092915050565b600081905092915050565b6000611d1d82611d42565b9050919050565b6000611d2f82611d42565b9050919050565b60008115159050919050565b600073ffffffffffffffffffffffffffffffffffffffff82169050919050565b6000819050919050565b82818337600083830152505050565b60005b83811015611d99578082015181840152602081019050611d7e565b83811115611da8576000848401525b50505050565b6000601f19601f8301169050919050565b611dc881611d24565b8114611dd357600080fd5b50565b611ddf81611d62565b8114611dea57600080fd5b5056fea2646970667358221220fce9eb3910c25b65162e2a9054dc1a04c79dfba0c1bfe8505a86ccabb3bc753264736f6c63430006060033",
  "immutableReferences": {},
  "source": "pragma solidity >=0.4.21 <0.7.0;\r\npragma experimental ABIEncoderV2;\r\n\r\ncontract CampaignFactory {\r\n    address[] public totalCampaigns;\r\n\r\n    event NewCampaign(\r\n        address indexed campaignAddress,\r\n        address indexed ownerAddress,\r\n        uint256 minimumValue,\r\n        string indexed ownerID\r\n    );\r\n\r\n    function createCampaign(uint256 _minimum, string memory _ownerID) public {\r\n        Campaign newCampaign = new Campaign(_minimum, _ownerID, msg.sender);\r\n        totalCampaigns.push(address(newCampaign));\r\n\r\n        emit NewCampaign(address(newCampaign), msg.sender, _minimum, _ownerID);\r\n    }\r\n\r\n    function getTotalCampaigns() public view returns (address[] memory) {\r\n        return totalCampaigns;\r\n    }\r\n}\r\n\r\ncontract Campaign {\r\n    constructor(\r\n        uint256 _minimun,\r\n        string memory _ownerID,\r\n        address _creator\r\n    ) public {\r\n        minimumContribution = _minimun;\r\n        owner = _creator;\r\n        ownerID = _ownerID;\r\n    }\r\n\r\n    string public ownerID;\r\n    uint256 minimumContribution;\r\n    address public owner;\r\n    mapping(string => address[]) approvers;\r\n    string[] public approverIDs;\r\n    uint256 public approveCounts;\r\n    RequestInfo[] public requests;\r\n\r\n    struct RequestInfo {\r\n        string description;\r\n        uint256 value;\r\n        uint256 approvalCounts;\r\n        bool complete;\r\n        address payable recipient;\r\n        mapping(string => bool) approvals; // userID => bool\r\n    }\r\n\r\n    event Contribute(\r\n        uint256 balance,\r\n        uint256 approveCounts,\r\n        uint256 contributionAmount,\r\n        string approverID,\r\n        address indexed approverAddress\r\n    );\r\n\r\n    modifier restricted(string memory _ownerID) {\r\n        require(\r\n            msg.sender == owner &&\r\n                keccak256(abi.encodePacked(ownerID)) ==\r\n                keccak256(abi.encodePacked(_ownerID)),\r\n            \"You are not the owner\"\r\n        );\r\n        _;\r\n    }\r\n\r\n    function getParticipants()\r\n        public\r\n        view\r\n        returns (string memory, string[] memory)\r\n    {\r\n        string memory managerID = ownerID;\r\n        string[] memory contributors = approverIDs;\r\n\r\n        return (managerID, contributors);\r\n    }\r\n\r\n    function getMinmum() public view returns (uint256) {\r\n        return minimumContribution;\r\n    }\r\n\r\n    function contribute(string memory _approverID) public payable {\r\n        require(\r\n            msg.value >= minimumContribution,\r\n            \"donation must be more than the minimumContribution\"\r\n        );\r\n        if (approvers[_approverID].length < 1) {\r\n            approveCounts++;\r\n            approvers[_approverID].push(msg.sender);\r\n            approverIDs.push(_approverID);\r\n        } else {\r\n            //      \r\n            address[] storage approverAccounts = approvers[_approverID];\r\n            bool isNew = true;\r\n            for (uint256 i = 0; i < approverAccounts.length; i++) {\r\n                if (approverAccounts[i] == msg.sender) {\r\n                    isNew = false;\r\n                }\r\n            }\r\n\r\n            if (isNew == true) {\r\n                approvers[_approverID].push(msg.sender);\r\n            }\r\n        }\r\n\r\n        emit Contribute(\r\n            address(this).balance,\r\n            approveCounts,\r\n            msg.value,\r\n            _approverID,\r\n            msg.sender\r\n        );\r\n    }\r\n\r\n    function createRequest(\r\n        string memory _description,\r\n        uint256 _value,\r\n        address payable _recipient,\r\n        string memory _ownerID\r\n    ) public restricted(_ownerID) {\r\n        require(_value <= address(this).balance, \"Too much value\");\r\n\r\n        RequestInfo memory newRequest = RequestInfo({\r\n            description: _description,\r\n            value: _value,\r\n            approvalCounts: 0,\r\n            complete: false,\r\n            recipient: _recipient\r\n        });\r\n\r\n        requests.push(newRequest);\r\n    }\r\n\r\n    function approveRequest(uint256 _index, string memory _approverID) public {\r\n        require(approvers[_approverID].length > 0, \"You are not a contributor\");\r\n        RequestInfo storage request = requests[_index];\r\n        require(\r\n            !request.approvals[_approverID],\r\n            \"You have aleady signed before\"\r\n        );\r\n\r\n        request.approvals[_approverID] = true;\r\n        request.approvalCounts++;\r\n    }\r\n\r\n    function finalizeRequest(uint256 _index, string memory _callerID) public {\r\n        string memory ownersID = ownerID;\r\n        require(\r\n            approvers[_callerID].length > 0 ||\r\n                keccak256(abi.encodePacked(ownersID)) ==\r\n                keccak256(abi.encodePacked(_callerID)),\r\n            \"You are not allowed to call this function\"\r\n        );\r\n        RequestInfo storage request = requests[_index];\r\n        require(\r\n            request.approvalCounts > (approveCounts / 2),\r\n            \"Not enough approvals\"\r\n        );\r\n        require(!request.complete, \"This request was completed\");\r\n\r\n        request.recipient.transfer(request.value);\r\n        request.complete = true;\r\n    }\r\n\r\n    function getApproveState(uint256 _index, string memory _callerID)\r\n        public\r\n        view\r\n        returns (bool)\r\n    {\r\n        RequestInfo storage request = requests[_index];\r\n        bool approveState = request.approvals[_callerID];\r\n\r\n        return approveState;\r\n    }\r\n\r\n    function getSummary()\r\n        public\r\n        view\r\n        returns (\r\n            uint256,\r\n            uint256,\r\n            uint256,\r\n            uint256,\r\n            address,\r\n            string memory,\r\n            address\r\n        )\r\n    {\r\n        return (\r\n            minimumContribution,\r\n            address(this).balance,\r\n            requests.length,\r\n            approveCounts,\r\n            owner,\r\n            ownerID,\r\n            address(this)\r\n        );\r\n    }\r\n\r\n    function getRequestCounts() public view returns (uint256) {\r\n        return requests.length;\r\n    }\r\n\r\n    function getTotalBalance() public view returns (uint256) {\r\n        return address(this).balance;\r\n    }\r\n}\r\n",
  "sourcePath": "D:\\ \\Solidy\\crowd-chain-react\\contracts\\Campaign.sol",
  "compiler": {
    "name": "solc",
    "version": "0.6.6+commit.6c089d02.Emscripten.clang"
  },
  "schemaVersion": "3.2.0",
  "updatedAt": "2020-11-04T14:22:38.463Z",
  "devdoc": {
    "methods": {}
  },
  "userdoc": {
    "methods": {}
  }
}