{
  "contractName": "Campaign",
  "abi": [
    {
      "inputs": [
        {
          "internalType": "uint256",
          "name": "_minimun",
          "type": "uint256"
        },
        {
          "internalType": "string",
          "name": "_ownerID",
          "type": "string"
        },
        {
          "internalType": "address",
          "name": "_creator",
          "type": "address"
        }
      ],
      "stateMutability": "nonpayable",
      "type": "constructor"
    },
    {
      "anonymous": false,
      "inputs": [
        {
          "indexed": false,
          "internalType": "uint256",
          "name": "balance",
          "type": "uint256"
        },
        {
          "indexed": false,
          "internalType": "uint256",
          "name": "approveCounts",
          "type": "uint256"
        },
        {
          "indexed": false,
          "internalType": "uint256",
          "name": "contributionAmount",
          "type": "uint256"
        },
        {
          "indexed": false,
          "internalType": "string",
          "name": "approverID",
          "type": "string"
        },
        {
          "indexed": true,
          "internalType": "address",
          "name": "approverAddress",
          "type": "address"
        }
      ],
      "name": "Contribute",
      "type": "event"
    },
    {
      "inputs": [],
      "name": "approveCounts",
      "outputs": [
        {
          "internalType": "uint256",
          "name": "",
          "type": "uint256"
        }
      ],
      "stateMutability": "view",
      "type": "function"
    },
    {
      "inputs": [
        {
          "internalType": "uint256",
          "name": "",
          "type": "uint256"
        }
      ],
      "name": "approverIDs",
      "outputs": [
        {
          "internalType": "string",
          "name": "",
          "type": "string"
        }
      ],
      "stateMutability": "view",
      "type": "function"
    },
    {
      "inputs": [],
      "name": "owner",
      "outputs": [
        {
          "internalType": "address",
          "name": "",
          "type": "address"
        }
      ],
      "stateMutability": "view",
      "type": "function"
    },
    {
      "inputs": [],
      "name": "ownerID",
      "outputs": [
        {
          "internalType": "string",
          "name": "",
          "type": "string"
        }
      ],
      "stateMutability": "view",
      "type": "function"
    },
    {
      "inputs": [
        {
          "internalType": "uint256",
          "name": "",
          "type": "uint256"
        }
      ],
      "name": "requests",
      "outputs": [
        {
          "internalType": "string",
          "name": "description",
          "type": "string"
        },
        {
          "internalType": "uint256",
          "name": "value",
          "type": "uint256"
        },
        {
          "internalType": "uint256",
          "name": "approvalCounts",
          "type": "uint256"
        },
        {
          "internalType": "bool",
          "name": "complete",
          "type": "bool"
        },
        {
          "internalType": "address payable",
          "name": "recipient",
          "type": "address"
        }
      ],
      "stateMutability": "view",
      "type": "function"
    },
    {
      "inputs": [],
      "name": "getContributionAmounts",
      "outputs": [
        {
          "internalType": "string[]",
          "name": "",
          "type": "string[]"
        },
        {
          "internalType": "uint256[]",
          "name": "",
          "type": "uint256[]"
        }
      ],
      "stateMutability": "view",
      "type": "function"
    },
    {
      "inputs": [],
      "name": "getParticipants",
      "outputs": [
        {
          "internalType": "string",
          "name": "",
          "type": "string"
        },
        {
          "internalType": "string[]",
          "name": "",
          "type": "string[]"
        }
      ],
      "stateMutability": "view",
      "type": "function"
    },
    {
      "inputs": [],
      "name": "getMinmum",
      "outputs": [
        {
          "internalType": "uint256",
          "name": "",
          "type": "uint256"
        }
      ],
      "stateMutability": "view",
      "type": "function"
    },
    {
      "inputs": [
        {
          "internalType": "string",
          "name": "_approverID",
          "type": "string"
        }
      ],
      "name": "contribute",
      "outputs": [],
      "stateMutability": "payable",
      "type": "function"
    },
    {
      "inputs": [
        {
          "internalType": "string",
          "name": "_description",
          "type": "string"
        },
        {
          "internalType": "uint256",
          "name": "_value",
          "type": "uint256"
        },
        {
          "internalType": "address payable",
          "name": "_recipient",
          "type": "address"
        },
        {
          "internalType": "string",
          "name": "_ownerID",
          "type": "string"
        }
      ],
      "name": "createRequest",
      "outputs": [],
      "stateMutability": "nonpayable",
      "type": "function"
    },
    {
      "inputs": [
        {
          "internalType": "uint256",
          "name": "_index",
          "type": "uint256"
        },
        {
          "internalType": "string",
          "name": "_approverID",
          "type": "string"
        }
      ],
      "name": "approveRequest",
      "outputs": [],
      "stateMutability": "nonpayable",
      "type": "function"
    },
    {
      "inputs": [
        {
          "internalType": "uint256",
          "name": "_index",
          "type": "uint256"
        },
        {
          "internalType": "string",
          "name": "_callerID",
          "type": "string"
        }
      ],
      "name": "finalizeRequest",
      "outputs": [],
      "stateMutability": "nonpayable",
      "type": "function"
    },
    {
      "inputs": [
        {
          "internalType": "uint256",
          "name": "_index",
          "type": "uint256"
        },
        {
          "internalType": "string",
          "name": "_callerID",
          "type": "string"
        }
      ],
      "name": "getApproveState",
      "outputs": [
        {
          "internalType": "bool",
          "name": "",
          "type": "bool"
        }
      ],
      "stateMutability": "view",
      "type": "function"
    },
    {
      "inputs": [],
      "name": "getSummary",
      "outputs": [
        {
          "internalType": "uint256",
          "name": "",
          "type": "uint256"
        },
        {
          "internalType": "uint256",
          "name": "",
          "type": "uint256"
        },
        {
          "internalType": "uint256",
          "name": "",
          "type": "uint256"
        },
        {
          "internalType": "uint256",
          "name": "",
          "type": "uint256"
        },
        {
          "internalType": "address",
          "name": "",
          "type": "address"
        },
        {
          "internalType": "string",
          "name": "",
          "type": "string"
        },
        {
          "internalType": "address",
          "name": "",
          "type": "address"
        }
      ],
      "stateMutability": "view",
      "type": "function"
    },
    {
      "inputs": [],
      "name": "getRequestCounts",
      "outputs": [
        {
          "internalType": "uint256",
          "name": "",
          "type": "uint256"
        }
      ],
      "stateMutability": "view",
      "type": "function"
    },
    {
      "inputs": [],
      "name": "getTotalBalance",
      "outputs": [
        {
          "internalType": "uint256",
          "name": "",
          "type": "uint256"
        }
      ],
      "stateMutability": "view",
      "type": "function"
    }
  ],
  "bytecode": "0x60806040523480156200001157600080fd5b50604051620024e3380380620024e38339818101604052810190620000379190620001da565b8260018190555080600260006101000a81548173ffffffffffffffffffffffffffffffffffffffff021916908373ffffffffffffffffffffffffffffffffffffffff160217905550816000908051906020019062000097929190620000a1565b505050506200034c565b828054600181600116156101000203166002900490600052602060002090601f016020900481019282601f10620000e457805160ff191683800117855562000115565b8280016001018555821562000115579182015b8281111562000114578251825591602001919060010190620000f7565b5b50905062000124919062000128565b5090565b6200014d91905b80821115620001495760008160009055506001016200012f565b5090565b90565b600081519050620001618162000318565b92915050565b600082601f8301126200017957600080fd5b8151620001906200018a8262000277565b62000249565b91508082526020830160208301858383011115620001ad57600080fd5b620001ba838284620002e2565b50505092915050565b600081519050620001d48162000332565b92915050565b600080600060608486031215620001f057600080fd5b60006200020086828701620001c3565b935050602084015167ffffffffffffffff8111156200021e57600080fd5b6200022c8682870162000167565b92505060406200023f8682870162000150565b9150509250925092565b6000604051905081810181811067ffffffffffffffff821117156200026d57600080fd5b8060405250919050565b600067ffffffffffffffff8211156200028f57600080fd5b601f19601f8301169050602081019050919050565b6000620002b182620002b8565b9050919050565b600073ffffffffffffffffffffffffffffffffffffffff82169050919050565b6000819050919050565b60005b8381101562000302578082015181840152602081019050620002e5565b8381111562000312576000848401525b50505050565b6200032381620002a4565b81146200032f57600080fd5b50565b6200033d81620002d8565b81146200034957600080fd5b50565b612187806200035c6000396000f3fe6080604052600436106100f35760003560e01c80637a6b3ed91161008a578063d479364e11610059578063d479364e1461032a578063d924100e14610356578063fe17059314610381578063fe636f1a146103aa576100f3565b80637a6b3ed91461025857806381d12c58146102815780638da5cb5b146102c2578063b88f430a146102ed576100f3565b80635aa68ac0116100c65780635aa68ac0146101bc5780635c43217b146101e8578063654f65091461020457806374d72d251461022d576100f3565b806312b58349146100f85780632b9334b9146101235780634051ddac146101605780634f3552d214610191575b600080fd5b34801561010457600080fd5b5061010d6103d5565b60405161011a9190611e81565b60405180910390f35b34801561012f57600080fd5b5061014a600480360381019061014591906116ef565b6103dd565b6040516101579190611cce565b60405180910390f35b34801561016c57600080fd5b50610175610496565b6040516101889796959493929190611ee8565b60405180910390f35b34801561019d57600080fd5b506101a6610588565b6040516101b39190611e81565b60405180910390f35b3480156101c857600080fd5b506101d1610592565b6040516101df929190611cf0565b60405180910390f35b61020260048036038101906101fd919061161b565b610726565b005b34801561021057600080fd5b5061022b6004803603810190610226919061165c565b610a56565b005b34801561023957600080fd5b50610242610c9b565b60405161024f9190611e81565b60405180910390f35b34801561026457600080fd5b5061027f600480360381019061027a9190611718565b610ca1565b005b34801561028d57600080fd5b506102a860048036038101906102a391906116ef565b610f4f565b6040516102b9959493929190611d27565b60405180910390f35b3480156102ce57600080fd5b506102d7611057565b6040516102e49190611c61565b60405180910390f35b3480156102f957600080fd5b50610314600480360381019061030f9190611718565b61107d565b6040516103219190611cb3565b60405180910390f35b34801561033657600080fd5b5061033f6110da565b60405161034d929190611c7c565b60405180910390f35b34801561036257600080fd5b5061036b6112c3565b6040516103789190611cce565b60405180910390f35b34801561038d57600080fd5b506103a860048036038101906103a39190611718565b611361565b005b3480156103b657600080fd5b506103bf6114a4565b6040516103cc9190611e81565b60405180910390f35b600047905090565b600581815481106103ea57fe5b906000526020600020016000915090508054600181600116156101000203166002900480601f01602080910402602001604051908101604052809291908181526020018280546001816001161561010002031660029004801561048e5780601f106104635761010080835404028352916020019161048e565b820191906000526020600020905b81548152906001019060200180831161047157829003601f168201915b505050505081565b60008060008060006060600060015447600780549050600654600260009054906101000a900473ffffffffffffffffffffffffffffffffffffffff16600030818054600181600116156101000203166002900480601f01602080910402602001604051908101604052809291908181526020018280546001816001161561010002031660029004801561056a5780601f1061053f5761010080835404028352916020019161056a565b820191906000526020600020905b81548152906001019060200180831161054d57829003601f168201915b50505050509150965096509650965096509650965090919293949596565b6000600154905090565b606080606060008054600181600116156101000203166002900480601f01602080910402602001604051908101604052809291908181526020018280546001816001161561010002031660029004801561062d5780601f106106025761010080835404028352916020019161062d565b820191906000526020600020905b81548152906001019060200180831161061057829003601f168201915b5050505050905060606005805480602002602001604051908101604052809291908181526020016000905b82821015610714578382906000526020600020018054600181600116156101000203166002900480601f0160208091040260200160405190810160405280929190818152602001828054600181600116156101000203166002900480156107005780601f106106d557610100808354040283529160200191610700565b820191906000526020600020905b8154815290600101906020018083116106e357829003601f168201915b505050505081526020019060010190610658565b50505050905081819350935050509091565b60015434101561076b576040517f08c379a000000000000000000000000000000000000000000000000000000000815260040161076290611de1565b60405180910390fd5b600160038260405161077d9190611c33565b908152602001604051809103902080549050101561088a576006600081548092919060010191905055506003816040516107b79190611c33565b9081526020016040518091039020339080600181540180825580915050600190039060005260206000200160009091909190916101000a81548173ffffffffffffffffffffffffffffffffffffffff021916908373ffffffffffffffffffffffffffffffffffffffff160217905550346004826040516108379190611c33565b9081526020016040518091039020819055506005819080600181540180825580915050600190039060005260206000200160009091909190915090805190602001906108849291906114b1565b506109fd565b600060038260405161089c9190611c33565b9081526020016040518091039020905060006001905060008090505b8280549050811015610940573373ffffffffffffffffffffffffffffffffffffffff168382815481106108e757fe5b9060005260206000200160009054906101000a900473ffffffffffffffffffffffffffffffffffffffff1673ffffffffffffffffffffffffffffffffffffffff16141561093357600091505b80806001019150506108b8565b506001151581151514156109ce5760038360405161095e9190611c33565b9081526020016040518091039020339080600181540180825580915050600190039060005260206000200160009091909190916101000a81548173ffffffffffffffffffffffffffffffffffffffff021916908373ffffffffffffffffffffffffffffffffffffffff1602179055505b346004846040516109df9190611c33565b90815260200160405180910390206000828254019250508190555050505b3373ffffffffffffffffffffffffffffffffffffffff167f54f4f40bee8a9fab27595bbaa23453787ac66177f983b1cd06a240ba9c3e9870476006543485604051610a4b9493929190611e9c565b60405180910390a250565b80600260009054906101000a900473ffffffffffffffffffffffffffffffffffffffff1673ffffffffffffffffffffffffffffffffffffffff163373ffffffffffffffffffffffffffffffffffffffff16148015610b00575080604051602001610ac09190611c33565b604051602081830303815290604052805190602001206000604051602001610ae89190611c4a565b60405160208183030381529060405280519060200120145b610b3f576040517f08c379a0000000000000000000000000000000000000000000000000000000008152600401610b3690611dc1565b60405180910390fd5b47841115610b82576040517f08c379a0000000000000000000000000000000000000000000000000000000008152600401610b7990611e21565b60405180910390fd5b610b8a611531565b6040518060a00160405280878152602001868152602001600081526020016000151581526020018573ffffffffffffffffffffffffffffffffffffffff16815250905060078190806001815401808255809150506001900390600052602060002090600502016000909190919091506000820151816000019080519060200190610c159291906114b1565b50602082015181600101556040820151816002015560608201518160030160006101000a81548160ff02191690831515021790555060808201518160030160016101000a81548173ffffffffffffffffffffffffffffffffffffffff021916908373ffffffffffffffffffffffffffffffffffffffff1602179055505050505050505050565b60065481565b606060008054600181600116156101000203166002900480601f016020809104026020016040519081016040528092919081815260200182805460018160011615610100020316600290048015610d395780601f10610d0e57610100808354040283529160200191610d39565b820191906000526020600020905b815481529060010190602001808311610d1c57829003601f168201915b505050505090506000600383604051610d529190611c33565b9081526020016040518091039020805490501180610dbb575081604051602001610d7c9190611c33565b6040516020818303038152906040528051906020012081604051602001610da39190611c33565b60405160208183030381529060405280519060200120145b610dfa576040517f08c379a0000000000000000000000000000000000000000000000000000000008152600401610df190611e41565b60405180910390fd5b600060078481548110610e0957fe5b90600052602060002090600502019050600260065481610e2557fe5b04816002015411610e6b576040517f08c379a0000000000000000000000000000000000000000000000000000000008152600401610e6290611e61565b60405180910390fd5b8060030160009054906101000a900460ff1615610ebd576040517f08c379a0000000000000000000000000000000000000000000000000000000008152600401610eb490611d81565b60405180910390fd5b8060030160019054906101000a900473ffffffffffffffffffffffffffffffffffffffff1673ffffffffffffffffffffffffffffffffffffffff166108fc82600101549081150290604051600060405180830381858888f19350505050158015610f2b573d6000803e3d6000fd5b5060018160030160006101000a81548160ff02191690831515021790555050505050565b60078181548110610f5c57fe5b9060005260206000209060050201600091509050806000018054600181600116156101000203166002900480601f0160208091040260200160405190810160405280929190818152602001828054600181600116156101000203166002900480156110085780601f10610fdd57610100808354040283529160200191611008565b820191906000526020600020905b815481529060010190602001808311610feb57829003601f168201915b5050505050908060010154908060020154908060030160009054906101000a900460ff16908060030160019054906101000a900473ffffffffffffffffffffffffffffffffffffffff16905085565b600260009054906101000a900473ffffffffffffffffffffffffffffffffffffffff1681565b6000806007848154811061108d57fe5b90600052602060002090600502019050600081600401846040516110b19190611c33565b908152602001604051809103902060009054906101000a900460ff169050809250505092915050565b606080606060058054905067ffffffffffffffff811180156110fb57600080fd5b5060405190808252806020026020018201604052801561112f57816020015b606081526020019060019003908161111a5790505b509050606060058054905067ffffffffffffffff8111801561115057600080fd5b5060405190808252806020026020018201604052801561117f5781602001602082028036833780820191505090505b50905060008090505b6005805490508110156112b657600581815481106111a257fe5b906000526020600020018054600181600116156101000203166002900480601f0160208091040260200160405190810160405280929190818152602001828054600181600116156101000203166002900480156112405780601f1061121557610100808354040283529160200191611240565b820191906000526020600020905b81548152906001019060200180831161122357829003601f168201915b505050505083828151811061125157fe5b602002602001018190525060046005828154811061126b57fe5b906000526020600020016040516112829190611c4a565b90815260200160405180910390205482828151811061129d57fe5b6020026020010181815250508080600101915050611188565b5081819350935050509091565b60008054600181600116156101000203166002900480601f0160208091040260200160405190810160405280929190818152602001828054600181600116156101000203166002900480156113595780601f1061132e57610100808354040283529160200191611359565b820191906000526020600020905b81548152906001019060200180831161133c57829003601f168201915b505050505081565b60006003826040516113739190611c33565b908152602001604051809103902080549050116113c5576040517f08c379a00000000000000000000000000000000000000000000000000000000081526004016113bc90611e01565b60405180910390fd5b6000600783815481106113d457fe5b9060005260206000209060050201905080600401826040516113f69190611c33565b908152602001604051809103902060009054906101000a900460ff1615611452576040517f08c379a000000000000000000000000000000000000000000000000000000000815260040161144990611da1565b60405180910390fd5b600181600401836040516114669190611c33565b908152602001604051809103902060006101000a81548160ff0219169083151502179055508060020160008154809291906001019190505550505050565b6000600780549050905090565b828054600181600116156101000203166002900490600052602060002090601f016020900481019282601f106114f257805160ff1916838001178555611520565b82800160010185558215611520579182015b8281111561151f578251825591602001919060010190611504565b5b50905061152d9190611578565b5090565b6040518060a00160405280606081526020016000815260200160008152602001600015158152602001600073ffffffffffffffffffffffffffffffffffffffff1681525090565b61159a91905b8082111561159657600081600090555060010161157e565b5090565b90565b6000813590506115ac81612123565b92915050565b600082601f8301126115c357600080fd5b81356115d66115d182611f8b565b611f5e565b915080825260208301602083018583830111156115f257600080fd5b6115fd8382846120d0565b50505092915050565b6000813590506116158161213a565b92915050565b60006020828403121561162d57600080fd5b600082013567ffffffffffffffff81111561164757600080fd5b611653848285016115b2565b91505092915050565b6000806000806080858703121561167257600080fd5b600085013567ffffffffffffffff81111561168c57600080fd5b611698878288016115b2565b94505060206116a987828801611606565b93505060406116ba8782880161159d565b925050606085013567ffffffffffffffff8111156116d757600080fd5b6116e3878288016115b2565b91505092959194509250565b60006020828403121561170157600080fd5b600061170f84828501611606565b91505092915050565b6000806040838503121561172b57600080fd5b600061173985828601611606565b925050602083013567ffffffffffffffff81111561175657600080fd5b611762858286016115b2565b9150509250929050565b60006117788383611898565b905092915050565b600061178c8383611c15565b60208301905092915050565b6117a181612088565b82525050565b6117b081612076565b82525050565b60006117c182611fec565b6117cb8185612027565b9350836020820285016117dd85611fb7565b8060005b8581101561181957848403895281516117fa858261176c565b94506118058361200d565b925060208a019950506001810190506117e1565b50829750879550505050505092915050565b600061183682611ff7565b6118408185612038565b935061184b83611fc7565b8060005b8381101561187c5781516118638882611780565b975061186e8361201a565b92505060018101905061184f565b5085935050505092915050565b6118928161209a565b82525050565b60006118a382612002565b6118ad8185612049565b93506118bd8185602086016120df565b6118c681612112565b840191505092915050565b60006118dc82612002565b6118e6818561205a565b93506118f68185602086016120df565b6118ff81612112565b840191505092915050565b600061191582612002565b61191f818561206b565b935061192f8185602086016120df565b80840191505092915050565b600081546001811660008114611958576001811461197d576119c1565b607f6002830416611969818761206b565b955060ff19831686528086019350506119c1565b6002820461198b818761206b565b955061199685611fd7565b60005b828110156119b857815481890152600182019150602081019050611999565b82880195505050505b505092915050565b60006119d6601a8361205a565b91507f5468697320726571756573742077617320636f6d706c657465640000000000006000830152602082019050919050565b6000611a16601d8361205a565b91507f596f75206861766520616c65616479207369676e6564206265666f72650000006000830152602082019050919050565b6000611a5660158361205a565b91507f596f7520617265206e6f7420746865206f776e657200000000000000000000006000830152602082019050919050565b6000611a9660328361205a565b91507f646f6e6174696f6e206d757374206265206d6f7265207468616e20746865206d60008301527f696e696d756d436f6e747269627574696f6e00000000000000000000000000006020830152604082019050919050565b6000611afc60198361205a565b91507f596f7520617265206e6f74206120636f6e7472696275746f72000000000000006000830152602082019050919050565b6000611b3c600e8361205a565b91507f546f6f206d7563682076616c75650000000000000000000000000000000000006000830152602082019050919050565b6000611b7c60298361205a565b91507f596f7520617265206e6f7420616c6c6f77656420746f2063616c6c207468697360008301527f2066756e6374696f6e00000000000000000000000000000000000000000000006020830152604082019050919050565b6000611be260148361205a565b91507f4e6f7420656e6f75676820617070726f76616c730000000000000000000000006000830152602082019050919050565b611c1e816120c6565b82525050565b611c2d816120c6565b82525050565b6000611c3f828461190a565b915081905092915050565b6000611c56828461193b565b915081905092915050565b6000602082019050611c7660008301846117a7565b92915050565b60006040820190508181036000830152611c9681856117b6565b90508181036020830152611caa818461182b565b90509392505050565b6000602082019050611cc86000830184611889565b92915050565b60006020820190508181036000830152611ce881846118d1565b905092915050565b60006040820190508181036000830152611d0a81856118d1565b90508181036020830152611d1e81846117b6565b90509392505050565b600060a0820190508181036000830152611d4181886118d1565b9050611d506020830187611c24565b611d5d6040830186611c24565b611d6a6060830185611889565b611d776080830184611798565b9695505050505050565b60006020820190508181036000830152611d9a816119c9565b9050919050565b60006020820190508181036000830152611dba81611a09565b9050919050565b60006020820190508181036000830152611dda81611a49565b9050919050565b60006020820190508181036000830152611dfa81611a89565b9050919050565b60006020820190508181036000830152611e1a81611aef565b9050919050565b60006020820190508181036000830152611e3a81611b2f565b9050919050565b60006020820190508181036000830152611e5a81611b6f565b9050919050565b60006020820190508181036000830152611e7a81611bd5565b9050919050565b6000602082019050611e966000830184611c24565b92915050565b6000608082019050611eb16000830187611c24565b611ebe6020830186611c24565b611ecb6040830185611c24565b8181036060830152611edd81846118d1565b905095945050505050565b600060e082019050611efd600083018a611c24565b611f0a6020830189611c24565b611f176040830188611c24565b611f246060830187611c24565b611f3160808301866117a7565b81810360a0830152611f4381856118d1565b9050611f5260c08301846117a7565b98975050505050505050565b6000604051905081810181811067ffffffffffffffff82111715611f8157600080fd5b8060405250919050565b600067ffffffffffffffff821115611fa257600080fd5b601f19601f8301169050602081019050919050565b6000819050602082019050919050565b6000819050602082019050919050565b60008190508160005260206000209050919050565b600081519050919050565b600081519050919050565b600081519050919050565b6000602082019050919050565b6000602082019050919050565b600082825260208201905092915050565b600082825260208201905092915050565b600082825260208201905092915050565b600082825260208201905092915050565b600081905092915050565b6000612081826120a6565b9050919050565b6000612093826120a6565b9050919050565b60008115159050919050565b600073ffffffffffffffffffffffffffffffffffffffff82169050919050565b6000819050919050565b82818337600083830152505050565b60005b838110156120fd5780820151818401526020810190506120e2565b8381111561210c576000848401525b50505050565b6000601f19601f8301169050919050565b61212c81612088565b811461213757600080fd5b50565b612143816120c6565b811461214e57600080fd5b5056fea26469706673582212209069b83ac5d381ae814a7852b888926dd10e5af5db53df822dd97153911065a464736f6c63430006060033",
  "immutableReferences": {},
  "source": "pragma solidity >=0.4.21 <0.7.0;\r\npragma experimental ABIEncoderV2;\r\n\r\ncontract CampaignFactory {\r\n    address[] public totalCampaigns;\r\n\r\n    event NewCampaign(\r\n        address indexed campaignAddress,\r\n        address indexed ownerAddress,\r\n        uint256 minimumValue,\r\n        string indexed ownerID\r\n    );\r\n\r\n    function createCampaign(uint256 _minimum, string memory _ownerID) public {\r\n        Campaign newCampaign = new Campaign(_minimum, _ownerID, msg.sender);\r\n        totalCampaigns.push(address(newCampaign));\r\n\r\n        emit NewCampaign(address(newCampaign), msg.sender, _minimum, _ownerID);\r\n    }\r\n\r\n    function getTotalCampaigns() public view returns (address[] memory) {\r\n        return totalCampaigns;\r\n    }\r\n}\r\n\r\ncontract Campaign {\r\n    constructor(\r\n        uint256 _minimun,\r\n        string memory _ownerID,\r\n        address _creator\r\n    ) public {\r\n        minimumContribution = _minimun;\r\n        owner = _creator;\r\n        ownerID = _ownerID;\r\n    }\r\n\r\n    string public ownerID;\r\n    uint256 minimumContribution;\r\n    address public owner;\r\n    mapping(string => address[]) approvers;\r\n    mapping(string => uint256) contributionAmount;\r\n    string[] public approverIDs;\r\n    uint256 public approveCounts;\r\n    RequestInfo[] public requests;\r\n\r\n    struct RequestInfo {\r\n        string description;\r\n        uint256 value;\r\n        uint256 approvalCounts;\r\n        bool complete;\r\n        address payable recipient;\r\n        mapping(string => bool) approvals; // userID => bool\r\n    }\r\n\r\n    event Contribute(\r\n        uint256 balance,\r\n        uint256 approveCounts,\r\n        uint256 contributionAmount,\r\n        string approverID,\r\n        address indexed approverAddress\r\n    );\r\n\r\n    modifier restricted(string memory _ownerID) {\r\n        require(\r\n            msg.sender == owner &&\r\n                keccak256(abi.encodePacked(ownerID)) ==\r\n                keccak256(abi.encodePacked(_ownerID)),\r\n            \"You are not the owner\"\r\n        );\r\n        _;\r\n    }\r\n\r\n    function getContributionAmounts()\r\n        public\r\n        view\r\n        returns (string[] memory, uint256[] memory)\r\n    {\r\n        string[] memory IDs = new string[](approverIDs.length);\r\n        uint256[] memory contributionAmounts = new uint256[](\r\n            approverIDs.length\r\n        );\r\n\r\n        for (uint256 i = 0; i < approverIDs.length; i++) {\r\n            IDs[i] = approverIDs[i];\r\n            contributionAmounts[i] = contributionAmount[approverIDs[i]];\r\n        }\r\n\r\n        return (IDs, contributionAmounts);\r\n    }\r\n\r\n    function getParticipants()\r\n        public\r\n        view\r\n        returns (string memory, string[] memory)\r\n    {\r\n        string memory managerID = ownerID;\r\n        string[] memory contributors = approverIDs;\r\n\r\n        return (managerID, contributors);\r\n    }\r\n\r\n    function getMinmum() public view returns (uint256) {\r\n        return minimumContribution;\r\n    }\r\n\r\n    function contribute(string memory _approverID) public payable {\r\n        require(\r\n            msg.value >= minimumContribution,\r\n            \"donation must be more than the minimumContribution\"\r\n        );\r\n        if (approvers[_approverID].length < 1) {\r\n            approveCounts++;\r\n            approvers[_approverID].push(msg.sender);\r\n            contributionAmount[_approverID] = msg.value;\r\n            approverIDs.push(_approverID);\r\n        } else {\r\n            //      \r\n            address[] storage approverAccounts = approvers[_approverID];\r\n            bool isNew = true;\r\n            for (uint256 i = 0; i < approverAccounts.length; i++) {\r\n                if (approverAccounts[i] == msg.sender) {\r\n                    isNew = false;\r\n                }\r\n            }\r\n\r\n            if (isNew == true) {\r\n                approvers[_approverID].push(msg.sender);\r\n            }\r\n            contributionAmount[_approverID] += msg.value;\r\n        }\r\n\r\n        emit Contribute(\r\n            address(this).balance,\r\n            approveCounts,\r\n            msg.value,\r\n            _approverID,\r\n            msg.sender\r\n        );\r\n    }\r\n\r\n    function createRequest(\r\n        string memory _description,\r\n        uint256 _value,\r\n        address payable _recipient,\r\n        string memory _ownerID\r\n    ) public restricted(_ownerID) {\r\n        require(_value <= address(this).balance, \"Too much value\");\r\n\r\n        RequestInfo memory newRequest = RequestInfo({\r\n            description: _description,\r\n            value: _value,\r\n            approvalCounts: 0,\r\n            complete: false,\r\n            recipient: _recipient\r\n        });\r\n\r\n        requests.push(newRequest);\r\n    }\r\n\r\n    function approveRequest(uint256 _index, string memory _approverID) public {\r\n        require(approvers[_approverID].length > 0, \"You are not a contributor\");\r\n        RequestInfo storage request = requests[_index];\r\n        require(\r\n            !request.approvals[_approverID],\r\n            \"You have aleady signed before\"\r\n        );\r\n\r\n        request.approvals[_approverID] = true;\r\n        request.approvalCounts++;\r\n    }\r\n\r\n    function finalizeRequest(uint256 _index, string memory _callerID) public {\r\n        string memory ownersID = ownerID;\r\n        require(\r\n            approvers[_callerID].length > 0 ||\r\n                keccak256(abi.encodePacked(ownersID)) ==\r\n                keccak256(abi.encodePacked(_callerID)),\r\n            \"You are not allowed to call this function\"\r\n        );\r\n        RequestInfo storage request = requests[_index];\r\n        require(\r\n            request.approvalCounts > (approveCounts / 2),\r\n            \"Not enough approvals\"\r\n        );\r\n        require(!request.complete, \"This request was completed\");\r\n\r\n        request.recipient.transfer(request.value);\r\n        request.complete = true;\r\n    }\r\n\r\n    function getApproveState(uint256 _index, string memory _callerID)\r\n        public\r\n        view\r\n        returns (bool)\r\n    {\r\n        RequestInfo storage request = requests[_index];\r\n        bool approveState = request.approvals[_callerID];\r\n\r\n        return approveState;\r\n    }\r\n\r\n    function getSummary()\r\n        public\r\n        view\r\n        returns (\r\n            uint256,\r\n            uint256,\r\n            uint256,\r\n            uint256,\r\n            address,\r\n            string memory,\r\n            address\r\n        )\r\n    {\r\n        return (\r\n            minimumContribution,\r\n            address(this).balance,\r\n            requests.length,\r\n            approveCounts,\r\n            owner,\r\n            ownerID,\r\n            address(this)\r\n        );\r\n    }\r\n\r\n    function getRequestCounts() public view returns (uint256) {\r\n        return requests.length;\r\n    }\r\n\r\n    function getTotalBalance() public view returns (uint256) {\r\n        return address(this).balance;\r\n    }\r\n}\r\n",
  "sourcePath": "D:\\ \\Solidy\\crowd-chain-react\\contracts\\Campaign.sol",
  "compiler": {
    "name": "solc",
    "version": "0.6.6+commit.6c089d02.Emscripten.clang"
  },
  "schemaVersion": "3.2.0",
  "updatedAt": "2020-11-05T04:41:12.716Z",
  "devdoc": {
    "methods": {}
  },
  "userdoc": {
    "methods": {}
  }
}